:100000000C9435000C945D000C945D000C945D0024
:100010000C945D000C945D000C945D000C945D00EC
:100020000C945D000C945D000C945D000C945D00DC
:100030000C945D000C945D000C945D000C945D00CC
:100040000C94E2010C945D000C9452020C942C026E
:100050000C945D000C945D000C945D000C945D00AC
:100060000C945D000C945D00050411241FBECFEFBD
:10007000D8E0DEBFCDBF11E0A0E0B1E0E0E3FDE0FD
:1000800002C005900D92AE32B107D9F721E0AEE281
:10009000B1E001C01D92A43DB207E1F710E0C5E355
:1000A000D0E004C02197FE010E949006C433D1071E
:1000B000C9F70E9484020C9496060C9400003FB786
:1000C000F8948091330190913401A0913501B09161
:1000D000360126B5A89B05C02F3F19F00196A11D3A
:1000E000B11D3FBFBA2FA92F982F8827BC01CD0182
:1000F000620F711D811D911D42E0660F771F881FE1
:10010000991F4A95D1F70895AF92BF92CF92DF928F
:10011000EF92FF920F931F93CF93DF936C017B01BC
:100120008B01040F151FEB015E01AE18BF08C0174D
:10013000D10759F06991D601ED91FC910190F081C0
:10014000E02DC6010995892B79F7C501DF91CF9183
:100150001F910F91FF90EF90DF90CF90BF90AF90E5
:100160000895FC01538D448D252F30E0842F90E0BD
:10017000821B930B541710F0CF96089501970895A2
:10018000FC01918D828D981761F0A28DAE0FBF2F6B
:10019000B11D5D968C91928D9F5F9F73928F90E0C1
:1001A00008958FEF9FEF0895FC01918D828D981730
:1001B00031F0828DE80FF11D858D90E008958FEF6D
:1001C0009FEF0895FC01918D228D892F90E0805C36
:1001D0009F4F821B91098F739927089587E391E0C0
:1001E0000E94E20021E0892B09F420E0822F08958B
:1001F00080E090E0892B29F00E94EE0081110C94A0
:1002000000000895FC01A48DA80FB92FB11DA35AB9
:10021000BF4F2C91848D90E001968F739927848F26
:10022000A689B7892C93A089B1898C918370806449
:100230008C93938D848D981306C00288F389E02DEA
:1002400080818F7D80830895EF92FF920F931F939B
:10025000CF93DF93EC0181E0888F9B8D8C8D981379
:100260001AC0E889F989808185FF15C09FB7F89485
:10027000EE89FF896083E889F989808183708064D1
:1002800080839FBF81E090E0DF91CF911F910F911C
:10029000FF90EF900895F62E0B8D10E00F5F1F4F2B
:1002A0000F731127E02E8C8D8E110CC00FB607FC3A
:1002B000FACFE889F989808185FFF5CFCE010E94C8
:1002C0000201F1CFEB8DEC0FFD2FF11DE35AFF4F33
:1002D000F0829FB7F8940B8FEA89FB898081806256
:1002E000CFCFCF93DF93EC01888D8823B9F0AA8913
:1002F000BB89E889F9898C9185FD03C0808186FDE1
:100300000DC00FB607FCF7CF8C9185FFF2CF80812F
:1003100085FFEDCFCE010E940201E9CFDF91CF91A1
:100320000895FC0101900020E9F73197AF01481BC7
:10033000590BBC0187E391E00C9484008F929F924B
:10034000AF92BF920F931F93CF93DF93CDB7DEB7DA
:10035000A1970FB6F894DEBF0FBECDBF19A24230F1
:1003600008F44AE08E010F5D1F4F842E912CB12CB2
:10037000A12CA50194010E946E06E62FB901CA01C5
:10038000EA30F4F4E05DD801EE938D01232B242BA9
:10039000252B79F790E080E0109719F0CD010E94AD
:1003A0009101A1960FB6F894DEBF0FBECDBFDF91CD
:1003B000CF911F910F91BF90AF909F908F90089514
:1003C000E95CE1CF1F920F920FB60F9211242F9389
:1003D0003F938F939F93AF93BF9380912F01909101
:1003E0003001A0913101B091320130912E0123E012
:1003F000230F2D3758F50196A11DB11D20932E0115
:1004000080932F0190933001A0933101B09332017A
:100410008091330190913401A0913501B091360162
:100420000196A11DB11D8093330190933401A093D7
:100430003501B0933601BF91AF919F918F913F915C
:100440002F910F900FBE0F901F90189526E8230F45
:100450000296A11DB11DD2CF1F920F920FB60F921F
:1004600011242F933F934F935F936F937F938F93B9
:100470009F93AF93BF93EF93FF9387E391E00E9425
:100480000201FF91EF91BF91AF919F918F917F9169
:100490006F915F914F913F912F910F900FBE0F90F1
:1004A0001F9018951F920F920FB60F9211242F9341
:1004B0008F939F93EF93FF93E0914701F091480151
:1004C0008081E0914D01F0914E0182FD1BC0908131
:1004D000809150018F5F8F7320915101821741F0FD
:1004E000E0915001F0E0E95CFE4F958F8093500160
:1004F000FF91EF919F918F912F910F900FBE0F90D1
:100500001F9018958081F4CF789484B5826084BD63
:1005100084B5816084BD85B5826085BD85B5816007
:1005200085BD80916E00816080936E001092810085
:100530008091810082608093810080918100816040
:100540008093810080918000816080938000809101
:10055000B10084608093B1008091B000816080938D
:10056000B00080917A00846080937A0080917A0054
:10057000826080937A0080917A00816080937A0013
:1005800080917A00806880937A001092C100E09197
:100590004701F091480182E08083E0914301F091AE
:1005A00044011082E0914501F09146018FEC808377
:1005B00010924F01E0914B01F0914C0186E0808355
:1005C000E0914901F0914A01808180618083E0914E
:1005D0004901F0914A01808188608083E09149015E
:1005E000F0914A01808180688083E0914901F09117
:1005F0004A0180818F7D808315E4C0E0D0E01093B4
:100600007C0080917A00806480937A0080917A00E7
:1006100086FDFCCF6091780070917900072E000C68
:10062000880B990B0E94470520E030E040E85AE330
:100630000E94FC0520E030E44CE955E40E94FC05F2
:1006400020E030E040E251E40E94A4046B017C0110
:100650004B015C0182E191E00E949101A7019601AA
:10066000C701B6010E9469068823D9F18AE191E0A9
:100670000E94910186E291E00E9491018AE291E05C
:100680000E9491010E945F004B015C0184E6C82E2C
:10069000D12CE12CF12C0E945F00681979098A099C
:1006A0009B09683E734081059105A8F321E0C21AB9
:1006B000D108E108F10888EE880E83E0981EA11C9D
:1006C000B11CC114D104E104F10429F7209709F405
:1006D00096CF0E94EE00882309F491CF0E9400007B
:1006E0008ECF26013701E89477F82FEF3FEF4FE7E1
:1006F0005FE7C301B2010E94690681110DC02FEFAF
:100700003FEF4FE75FE7C301B2010E949F04181655
:100710001CF48EE191E0ACCF2FEF3FEF4FE75FE4A9
:10072000C701B6010E94F70518161CF482E291E099
:100730009FCF2FEF3FEF4FE75FECC701B6010E945D
:100740009F0487FDF3CF20E030E0A901C701B60187
:100750000E949F0487FF0BC06DE287E391E00E9437
:10076000240146015701B7FAB094B7F8B0942AE0D3
:1007700037ED43EA5BE3C501B4010E9433044B014A
:100780005C010E9416056B017C010E9445059B01DE
:10079000AC01C501B4010E9432044B015C014AE086
:1007A000C701B6010E949E016EE287E391E00E94BC
:1007B000240120E030E040E251E4C501B4010E9490
:1007C000FC054B015C010E9416056B01F12CE12C2C
:1007D0004AE0C701B6010E949E01C701B6010E940E
:1007E00045059B01AC01C501B4010E94320420E023
:1007F00030E040E251E40E94FC050E94160590E0C2
:1008000080E04AE00E949E0135CFE7E3F1E01382E9
:10081000128288EE93E0A0E0B0E084839583A68303
:10082000B78384E091E09183808385EC90E09587A5
:10083000848784EC90E09787868780EC90E0918BAA
:10084000808B81EC90E0938B828B82EC90E0958B97
:10085000848B86EC90E0978B868B118E128E138E94
:10086000148E08955058BB27AA270E944A040C945E
:10087000BD050E94AF0538F00E94B60520F039F49E
:100880009F3F19F426F40C94AC050EF4E095E7FBB9
:100890000C94A605E92F0E94CE0558F3BA176207FB
:1008A00073078407950720F079F4A6F50C94F005FA
:1008B0000EF4E0950B2EBA2FA02D0B01B90190017B
:1008C0000C01CA01A0011124FF27591B99F0593FBF
:1008D00050F4503E68F11A16F040A22F232F342F07
:1008E0004427585FF3CF469537952795A795F04055
:1008F0005395C9F77EF41F16BA0B620B730B840B6A
:10090000BAF09150A1F0FF0FBB1F661F771F881F21
:10091000C2F70EC0BA0F621F731F841F48F4879579
:1009200077956795B795F7959E3F08F0B0CF93956B
:10093000880F08F09927EE0F9795879508950E94E4
:10094000820508F481E008950E94B8040C94BD0566
:100950000E94B60558F00E94AF0540F029F45F3FB1
:1009600029F00C94A60551110C94F1050C94AC05DA
:100970000E94CE0568F39923B1F3552391F3951B9B
:10098000550BBB27AA2762177307840738F09F5FB0
:100990005F4F220F331F441FAA1FA9F335D00E2E1D
:1009A0003AF0E0E832D091505040E695001CCAF78A
:1009B0002BD0FE2F29D0660F771F881FBB1F26174D
:1009C00037074807AB07B0E809F0BB0B802DBF0124
:1009D000FF2793585F4F3AF09E3F510578F00C94F3
:1009E000A6050C94F1055F3FE4F3983ED4F3869599
:1009F00077956795B795F7959F5FC9F7880F911D14
:100A00009695879597F90895E1E0660F771F881FFF
:100A1000BB1F621773078407BA0720F0621B730BB2
:100A2000840BBA0BEE1F88F7E09508950E94D60557
:100A300088F09F5798F0B92F9927B751B0F0E1F09F
:100A4000660F771F881F991F1AF0BA95C9F714C04F
:100A5000B13091F00E94F005B1E008950C94F005DA
:100A6000672F782F8827B85F39F0B93FCCF3869588
:100A700077956795B395D9F73EF4909580957095E5
:100A800061957F4F8F4F9F4F0895E89409C097FB62
:100A90003EF490958095709561957F4F8F4F9F4F55
:100AA0009923A9F0F92F96E9BB279395F695879599
:100AB00077956795B795F111F8CFFAF4BB0F11F45C
:100AC00060FF1BC06F5F7F4F8F4F9F4F16C0882303
:100AD00011F096E911C0772321F09EE8872F762F39
:100AE00005C0662371F096E8862F70E060E02AF07A
:100AF0009A95660F771F881FDAF7880F9695879566
:100B000097F90895990F0008550FAA0BE0E8FEEF3A
:100B100016161706E807F907C0F012161306E407C1
:100B2000F50798F0621B730B840B950B39F40A26BA
:100B300061F0232B242B252B21F408950A2609F498
:100B4000A140A6958FEF811D811D089597F99F679C
:100B500080E870E060E008959FEF80EC0895002445
:100B60000A941616170618060906089500240A9412
:100B700012161306140605060895092E0394000C98
:100B800011F4882352F0BB0F40F4BF2B11F460FF27
:100B900004C06F5F7F4F8F4F9F4F089557FD905850
:100BA000440F551F59F05F3F71F04795880F97FB31
:100BB000991F61F09F3F79F08795089512161306EB
:100BC0001406551FF2CF4695F1DF08C0161617061A
:100BD0001806991FF1CF869571056105089408954F
:100BE000E894BB2766277727CB0197F908950E94E1
:100BF000820508F48FEF08950E940F060C94BD053E
:100C00000E94AF0538F00E94B60520F0952311F040
:100C10000C94A6050C94AC0511240C94F1050E94CB
:100C2000CE0570F3959FC1F3950F50E0551F629F5D
:100C3000F001729FBB27F00DB11D639FAA27F00D35
:100C4000B11DAA1F649F6627B00DA11D661F829F5C
:100C50002227B00DA11D621F739FB00DA11D621F41
:100C6000839FA00D611D221F749F3327A00D611D5E
:100C7000231F849F600D211D822F762F6A2F112440
:100C80009F5750409AF0F1F088234AF0EE0FFF1F73
:100C9000BB1F661F771F881F91505040A9F79E3FCA
:100CA000510580F00C94A6050C94F1055F3FE4F328
:100CB000983ED4F3869577956795B795F795E79520
:100CC0009F5FC1F7FE2B880F911D9695879597F929
:100CD00008950E948205880B990B0895A1E21A2EAF
:100CE000AA1BBB1BFD010DC0AA1FBB1FEE1FFF1FD0
:100CF000A217B307E407F50720F0A21BB30BE40B20
:100D0000F50B661F771F881F991F1A9469F7609566
:100D10007095809590959B01AC01BD01CF01089520
:100D2000EE0FFF1F0590F491E02D0994F894FFCF8A
:100D30000000000024018400B1007101E200C00045
:100D4000D40054454D50203D20006E616E00696E08
:0E0D500066006F766600202A43000D0A000040
:00000001FF
