:020000040000FA
:100000000C9462000C948A000C948A000C948A0070
:100010000C948A000C948A000C948A000C948A0038
:100020000C948A000C948A000C948A000C948A0028
:100030000C948A000C948A000C948A000C948A0018
:100040000C9418030C948A000C9488030C9462039B
:100050000C948A000C948A000C948A000C948A00F8
:100060000C948A000C948A000000000024002700F1
:100070002A0000000000250028002B0000000000DE
:1000800023002600290004040404040404040202DA
:100090000202020203030303030301020408102007
:1000A0004080010204081020010204081020000012
:1000B0000008000201000003040700000000000027
:1000C0000000BA0311241FBECFEFD8E0DEBFCDBFC2
:1000D00011E0A0E0B1E0E6EAFCE002C005900D927C
:1000E000A233B107D9F722E0A2E3B1E001C01D922B
:1000F000A734B207E1F710E0C2E6D0E004C02197D0
:10010000FE010E944B06C136D107C9F70E94480480
:100110000C9451060C94000096E0899FD0011124A4
:10012000A852BE4F90967C936E935F9791E0919604
:100130009C939197E0914502F09146029091440280
:10014000992339F0309751F0811108C08091F40162
:100150000994309719F05C968C91FACF0895CF925C
:10016000DF92EF92FF920F931F9396E0899FF00129
:100170001124E852FE4F11A2278D30A12130310504
:1001800051F178F02230310509F451C023303105A6
:1001900009F452C01F910F91FF90EF90DF90CF9024
:1001A00008956623B9F361E070E00E948C002FB7D8
:1001B000F8948091370190913801A0913901B09164
:1001C0003A012FBF8093300290933102A093320204
:1001D000B0933302DFCF9FB7F894C0903701D0902F
:1001E0003801E0903901F0903A019FBF0091300250
:1001F000109131022091320230913302C01AD10A9B
:10020000E20AF30A009142021091430230E020E03A
:100210000C151D052E053F0550F462E070E01F919E
:100220000F91FF90EF90DF90CF900C948C006111B4
:10023000B1CF63E070E0F3CF70E060E0F0CF8330E7
:1002400081F028F4813099F08230A9F00895873048
:10025000A9F08830C9F08430B1F4809180008F7D9E
:1002600003C0809180008F7780938000089584B5CB
:100270008F7784BD089584B58F7DFBCF8091B000CA
:100280008F778093B00008958091B0008F7DF9CF73
:10029000CF93DF93282F30E0F901E255FF4F84918F
:1002A000F901E656FF4FD491F901EA57FF4FC49187
:1002B000CC23A1F081110E941F01EC2FF0E0EE0F82
:1002C000FF1FE458FF4FA591B491EC91ED2381E01D
:1002D00090E009F480E0DF91CF91089580E090E014
:1002E000FACF1F93CF93DF93282F30E0F901E25527
:1002F000FF4F8491F901E656FF4FD491F901EA5777
:10030000FF4FC491CC23A9F0162F81110E941F0129
:10031000EC2FF0E0EE0FFF1FEE58FF4FA591B491C8
:100320008FB7F894EC91111108C0D095DE23DC93BF
:100330008FBFDF91CF911F910895DE2BF8CFCF9320
:10034000DF9390E0FC01E656FF4F24918A579F4FC0
:10035000FC0184918823C9F090E0880F991FFC016B
:10036000E859FF4FA591B491FC01EE58FF4FC5919C
:10037000D49161110DC09FB7F8948C912095822380
:100380008C938881282328839FBFDF91CF91089584
:10039000623051F49FB7F8943C91822F809583236B
:1003A0008C93E8812E2BEFCF8FB7F894EC912E2B06
:1003B0002C938FBFEACF3FB7F8948091330190918F
:1003C0003401A0913501B091360126B5A89B05C036
:1003D0002F3F19F00196A11DB11D3FBFBA2FA92FC4
:1003E000982F8827BC01CD01620F711D811D911DC1
:1003F00042E0660F771F881F991F4A95D1F708952D
:10040000862F642F0C949F01862F642F0C9471010A
:10041000862F0C944801AF92BF92CF92DF92EF9259
:10042000FF920F931F93CF93DF936C017B018B019E
:10043000040F151FEB015E01AE18BF08C017D107EE
:1004400059F06991D601ED91FC910190F081E02D78
:10045000C6010995892B79F7C501DF91CF911F91CD
:100460000F91FF90EF90DF90CF90BF90AF900895E5
:10047000FC01538D448D252F30E0842F90E0821BAA
:10048000930B541710F0CF96089501970895FC012F
:10049000918D828D981761F0A28DAE0FBF2FB11D87
:1004A0005D968C91928D9F5F9F73928F90E00895DF
:1004B0008FEF9FEF0895FC01918D828D981731F099
:1004C000828DE80FF11D858D90E008958FEF9FEFED
:1004D0000895FC01918D228D892F90E0805C9F4FC3
:1004E000821B91098F73992708958BE391E00E94F5
:1004F000690221E0892B09F420E0822F089580E031
:1005000090E0892B29F00E94750281110C94000063
:100510000895FC01A48DA80FB92FB11DA35ABF4F98
:100520002C91848D90E001968F739927848FA689F2
:10053000B7892C93A089B1898C91837080648C9346
:10054000938D848D981306C00288F389E02D8081F5
:100550008F7D80830895EF92FF920F931F93CF9327
:10056000DF93EC0181E0888F9B8D8C8D98131AC0EE
:10057000E889F989808185FF15C09FB7F894EE89D5
:10058000FF896083E889F989808183708064808332
:100590009FBF81E090E0DF91CF911F910F91FF907D
:1005A000EF900895F62E0B8D10E00F5F1F4F0F7325
:1005B0001127E02E8C8D8E110CC00FB607FCFACFE0
:1005C000E889F989808185FFF5CFCE010E948902F3
:1005D000F1CFEB8DEC0FFD2FF11DE35AFF4FF082B1
:1005E0009FB7F8940B8FEA89FB8980818062CFCF17
:1005F000CF93DF93EC01888D8823B9F0AA89BB895A
:10060000E889F9898C9185FD03C0808186FD0DC044
:100610000FB607FCF7CF8C9185FFF2CF808185FF65
:10062000EDCFCE010E948902E9CFDF91CF910895ED
:100630001F920F920FB60F9211242F933F938F9317
:100640009F93AF93BF938091370190913801A09110
:100650003901B0913A013091320123E0230F2D3757
:1006600058F50196A11DB11D2093320180933701E9
:1006700090933801A0933901B0933A0180913301EE
:1006800090913401A0913501B09136010196A11DE0
:10069000B11D8093330190933401A0933501B09341
:1006A0003601BF91AF919F918F913F912F910F9004
:1006B0000FBE0F901F90189526E8230F0296A11DDC
:1006C000B11DD2CF1F920F920FB60F9211242F930C
:1006D0003F934F935F936F937F938F939F93AF93CA
:1006E000BF93EF93FF938BE391E00E948902FF9108
:1006F000EF91BF91AF919F918F917F916F915F919A
:100700004F913F912F910F900FBE0F901F90189512
:100710001F920F920FB60F9211242F938F939F93D6
:10072000EF93FF93E0914B01F0914C018081E091B8
:100730005101F091520182FD1BC0908180915401C2
:100740008F5F8F7320915501821741F0E091540122
:10075000F0E0E55CFE4F958F80935401FF91EF919F
:100760009F918F912F910F900FBE0F901F90189512
:100770008081F4CF10923E0110923D0188EE93E00B
:10078000A0E0B0E080933F0190934001A09341012D
:10079000B093420187E191E090933C0180933B014B
:1007A00085EC90E0909348018093470184EC90E0C1
:1007B00090934A018093490180EC90E090934C0122
:1007C00080934B0181EC90E090934E0180934D011A
:1007D00082EC90E09093500180934F0186EC90E082
:1007E000909352018093510110925401109255013F
:1007F00010925601109257011092DA011092DE0108
:100800001092DD011092DF0189E291E09093D9010D
:100810008093D801E4EFF1E01082148213821582F4
:10082000369682E0E033F807B9F783E091E09093E1
:100830003B0280933A0280E091E090933D028093E6
:100840003C0284E080933E0283E080933F0287E095
:1008500091E090933902809338028AE090E090937F
:1008600041028093400284EF91E090934302809391
:1008700042021092460210924502109234021092E7
:1008800035021092360210923702109244020895F7
:10089000789484B5826084BD84B5816084BD85B55B
:1008A000826085BD85B5816085BD80916E00816067
:1008B00080936E001092810080918100826080930D
:1008C000810080918100816080938100809180000F
:1008D0008160809380008091B10084608093B1003A
:1008E0008091B00081608093B00080917A00846034
:1008F00080937A0080917A00826080937A00809160
:100900007A00816080937A0080917A008068809379
:100910007A001092C100E0914B01F0914C0182E00D
:100920008083E0914701F09148011082E0914901F4
:10093000F0914A018FEC808310925301E0914F01B6
:10094000F091500186E08083E0914D01F0914E01DD
:10095000808180618083E0914D01F0914E01808122
:1009600088608083E0914D01F0914E018081806824
:100970008083E0914D01F0914E0180818F7D8083D5
:1009800061E085E00E949F01812C912C54018394A9
:1009900040E0642E40E0742E21E0209344028FB7A3
:1009A000F89440913701509138016091390170916C
:1009B0003A018FBF8091340290913502A0913602A6
:1009C000B0913702481B590B6A0B7B0B8091400298
:1009D00090914102B0E0A0E084179507A607B70701
:1009E00008F01AC1C0E080913E02C81760F4E0919F
:1009F0003A02F0913B02EC0FF11D62E080810E940F
:100A00009F01CF5FF0CF512C80913F02581608F024
:100A10005FC0052D10E0E0913C02F0913D02E00F37
:100A2000F11F61E080810E949F01E0913C02F09102
:100A30003D02E00FF11F60E080810E947101D5014D
:100A4000C401052C04C0880F991FAA1FBB1F0A945C
:100A5000D2F76C017C01E094F094412C80913E022D
:100A60004816F8F4C42DD0E0E0913A02F0913B0230
:100A7000EC0FFD1F80810E9448012496CC0FDD1FE2
:100A8000C852DE4F892B41F4888199818C299D2998
:100A9000998388834394E2CF888199818E219F2115
:100AA000F7CFE0913C02F0913D02E00FF11F61E0D1
:100AB00080810E94710180913C0290913D02080F5B
:100AC000191F60E0F80180810E949F0153949CCF20
:100AD00008ED11E0E8018F8D98A1892B31F41C8E6F
:100AE0008FEF9FEF9E8F8D8F19A2269692E0C431D3
:100AF000D90789F7F12C80913E02F81608F053C00F
:100B0000E12CCF2CD12CCC0CDD1CF601E052FE4F99
:100B10006F0120913F02E21608F043C0F6016081A8
:100B200071810E2C02C0769567950A94E2F7F29EC9
:100B3000900111242E0D311DE8EDF1E080E0458D8E
:100B4000568D2417350709F4A4C08F5F36968A3076
:100B5000B1F760FF24C0E8EDF1E090E080E0448D63
:100B6000411118C0E0913802F0913902E20FF31FF1
:100B7000408156E0589FF001599FF00D1124E85232
:100B8000FE4F448F368F258F10A2178E61E00E9492
:100B9000AF0005C0019636968A30910501F7E394BF
:100BA000B8CFF394A8CF80E0F80191A19111892FDB
:100BB0000A5F1F4FC017D107B9F79FB7F89440914C
:100BC0003701509138016091390170913A019FBF0E
:100BD000409334025093350260933602709337028B
:100BE0008823D1F08091F9018823B1F08091F70139
:100BF0009091F801019781F46091F40161110FC0A7
:100C00006114710409F4C8CE0E947502882309F4A6
:100C1000C3CE0E940000C0CE10924402F1CF8BE3FD
:100C200091E00E94AB0242E050E06FE271E08BE3A2
:100C300091E00E940B0261E085E00E9471010E9438
:100C4000DB016B017C0180ED282E87E0382E412CE2
:100C5000512C0E94DB016C197D098E099F09683EA9
:100C6000734081059105A8F3F1E02F1A310841087E
:100C7000510828EEC20E23E0D21EE11CF11C211403
:100C800031044104510429F760E085E00E947101BC
:100C9000B7CF61707CCFEE0FFF1F0590F491E02D70
:100CA0000994F894FFCF0607080C0B0A0931323378
:100CB0003435363738392A302300000000AB020BB8
:100CC000023802F802690247025B020000000000DD
:080CD00002040208020D0A00F3
:107E0000112484B714BE81FFF0D085E080938100F7
:107E100082E08093C00088E18093C10086E0809377
:107E2000C20080E18093C4008EE0C9D0259A86E02C
:107E300020E33CEF91E0309385002093840096BBD3
:107E4000B09BFECF1D9AA8958150A9F7CC24DD24C4
:107E500088248394B5E0AB2EA1E19A2EF3E0BF2EE7
:107E6000A2D0813461F49FD0082FAFD0023811F036
:107E7000013811F484E001C083E08DD089C08234E0
:107E800011F484E103C0853419F485E0A6D080C0E4
:107E9000853579F488D0E82EFF2485D0082F10E0AE
:107EA000102F00270E291F29000F111F8ED06801E7
:107EB0006FC0863521F484E090D080E0DECF843638
:107EC00009F040C070D06FD0082F6DD080E0C81688
:107ED00080E7D80618F4F601B7BEE895C0E0D1E017
:107EE00062D089930C17E1F7F0E0CF16F0E7DF06D8
:107EF00018F0F601B7BEE89568D007B600FCFDCFD4
:107F0000A601A0E0B1E02C9130E011968C91119780
:107F100090E0982F8827822B932B1296FA010C0160
:107F200087BEE89511244E5F5F4FF1E0A038BF0790
:107F300051F7F601A7BEE89507B600FCFDCF97BE46
:107F4000E89526C08437B1F42ED02DD0F82E2BD052
:107F50003CD0F601EF2C8F010F5F1F4F84911BD097
:107F6000EA94F801C1F70894C11CD11CFA94CF0C13
:107F7000D11C0EC0853739F428D08EE10CD085E9AC
:107F80000AD08FE07ACF813511F488E018D01DD067
:107F900080E101D065CF982F8091C00085FFFCCF94
:107FA0009093C60008958091C00087FFFCCF809118
:107FB000C00084FD01C0A8958091C6000895E0E648
:107FC000F0E098E1908380830895EDDF803219F02E
:107FD00088E0F5DFFFCF84E1DECF1F93182FE3DFCA
:107FE0001150E9F7F2DF1F91089580E0E8DFEE27F6
:047FF000FF270994CA
:027FFE00040479
:00000001FF
