:100000000C9462000C948A000C948A000C948A0070
:100010000C948A000C948A000C948A000C948A0038
:100020000C948A000C948A000C948A000C948A0028
:100030000C948A000C948A000C948A000C948A0018
:100040000C9471060C948A000C94E1060C94BB0687
:100050000C948A000C948A000C948A000C948A00F8
:100060000C9413070C948A00000000002400270061
:100070002A0000000000250028002B0000000008D6
:10008000000201000003040700000000000000005F
:1000900000000000230026002900040404040404D6
:1000A0000404020202020202030303030303010227
:1000B00004081020408001020408102001020408F6
:1000C0001020730811241FBECFEFD8E0DEBFCDBFD4
:1000D00011E0A0E0B1E0EEE6FCE102C005900D9277
:1000E000AE3CB107D9F723E0AEECB1E001C01D9200
:1000F000A732B207E1F710E0C2E6D0E004C02197D2
:10010000FE010E942F0EC136D107C9F70E94BB081D
:100110000C94350E0C940000833081F028F481306B
:1001200099F08230A9F008958730A9F08830C9F09D
:100130008430B1F4809180008F7D03C08091800075
:100140008F7780938000089584B58F7784BD08955C
:1001500084B58F7DFBCF8091B0008F778093B00006
:1001600008958091B0008F7DF9CF1F93CF93DF93D7
:10017000282F30E0F901E458FF4F8491F901E2554E
:10018000FF4FD491F901E656FF4FC491CC23A9F05B
:10019000162F81110E948C00EC2FF0E0EE0FFF1F54
:1001A000EE58FF4FA591B4918FB7F894EC911111CF
:1001B00008C0D095DE23DC938FBFDF91CF911F91D4
:1001C0000895DE2BF8CFCF93DF9390E0FC01E2554A
:1001D000FF4F249186569F4FFC0184918823C9F0DC
:1001E00090E0880F991FFC01E859FF4FA591B49149
:1001F000FC01EE58FF4FC591D49161110DC09FB71E
:10020000F8948C91209582238C93888128232883CD
:100210009FBFDF91CF910895623051F49FB7F8945A
:100220003C91822F809583238C93E8812E2BEFCFF6
:100230008FB7F894EC912E2B2C938FBFEACF8E5072
:10024000806480937C0080917A00806480937A003F
:1002500080917A0086FDFCCF8091780090917900A2
:1002600008953FB7F89480916E0290916F02A0912B
:100270007002B091710226B5A89B05C02F3F19F0FE
:100280000196A11DB11D3FBFBA2FA92F982F882716
:10029000BC01CD01620F711D811D911D42E0660FF1
:1002A000771F881F991F4A95D1F708958F929F92C3
:1002B000AF92BF92CF92DF92EF92FF924B015C011F
:1002C0000E9431016B017C010E9431016C197D0992
:1002D0008E099F09683E734081059105A8F321E0CE
:1002E000821A9108A108B10888EEC80E83E0D81ED2
:1002F000E11CF11C81149104A104B10429F7FF90C1
:10030000EF90DF90CF90BF90AF909F908F90089527
:10031000AF92BF92CF92DF92EF92FF920F931F9313
:10032000CF93DF936C017B018B01040F151FEB0151
:100330005E01AE18BF08C017D10759F06991D60108
:10034000ED91FC910190F081E02DC6010995892B7A
:1003500079F7C501DF91CF911F910F91FF90EF9039
:10036000DF90CF90BF90AF900895FC01538D448DE6
:10037000252F30E0842F90E0821B930B541710F050
:10038000CF96089501970895FC01918D828D98175D
:1003900061F0A28DAE0FBF2FB11D5D968C91928D35
:1003A0009F5F9F73928F90E008958FEF9FEF089566
:1003B000FC01918D828D981731F0828DE80FF11D2F
:1003C000858D90E008958FEF9FEF0895FC01918D4A
:1003D000228D892F90E0805C9F4F821B91098F7343
:1003E0009927089582E792E00E94E60121E0892B97
:1003F00009F420E0822F089580E090E0892B29F015
:100400000E94F20181110C9400000895FC01A48D5A
:10041000A80FB92FB11DA35ABF4F2C91848D90E026
:1004200001968F739927848FA689B7892C93A08909
:10043000B1898C91837080648C93938D848D981393
:1004400006C00288F389E02D80818F7D8083089526
:10045000EF92FF920F931F93CF93DF93EC0181E014
:10046000888F9B8D8C8D98131AC0E889F9898081BB
:1004700085FF15C09FB7F894EE89FF896083E889EE
:10048000F98980818370806480839FBF81E090E0E0
:10049000DF91CF911F910F91FF90EF900895F62E6D
:1004A0000B8D10E00F5F1F4F0F731127E02E8C8D07
:1004B0008E110CC00FB607FCFACFE889F98980814C
:1004C00085FFF5CFCE010E940602F1CFEB8DEC0F38
:1004D000FD2FF11DE35AFF4FF0829FB7F8940B8F69
:1004E000EA89FB8980818062CFCFCF93DF93EC01D3
:1004F000888D8823B9F0AA89BB89E889F9898C910C
:1005000085FD03C0808186FD0DC00FB607FCF7CFC7
:100510008C9185FFF2CF808185FFEDCFCE010E94C7
:100520000602E9CFDF91CF9108951F93CF93DF9318
:10053000C1E0C093FC01882399F1D091B8001091DB
:10054000BA008091BC008A7B8093BC0060E082E1AD
:100550000E94B50060E083E10E94B5001092410264
:10056000C09343021092420261E082E10E94B50012
:1005700061E083E10E94B5008091B9008E7F809395
:10058000B9008091B9008D7F8093B90088E4809391
:10059000B80085E48093BC001093BA00D093B800F3
:1005A000DF91CF911F91089520911D02260F3327CF
:1005B000331F21323105ECF420914102FC0190E01F
:1005C00080E0243069F082E00895A0911D0221911D
:1005D000AC0143505E4FA40FB52FB11D2C93019673
:1005E000861798F380911D02680F60931D0280E0CA
:1005F000089581E0089508958FEF9FEF08958FEF9C
:100600009FEF08958091F60190E091958195910971
:100610000895CF92DF92EF92FF920F931F93CF93A3
:10062000DF937C01CB018A012091F501222389F01F
:10063000EB016B01C40ED51ECC15DD0569F0699187
:10064000D701ED91FC910190F081E02DC701099552
:10065000F3CF642F0E94D402C801DF91CF911F9184
:100660000F91FF90EF90DF90CF900895CF93DF939D
:100670001F92CDB7DEB769832091F5012223F9F0EF
:100680002091F401203258F021E030E0FC01338366
:10069000228390E080E00F90DF91CF9108958091C8
:1006A000F301E82FF0E0ED52FE4F998190838F5FC8
:1006B0008093F3018093F40181E090E0ECCF61E05E
:1006C000CE0101960E94D402F7CFCF92DF92EF9233
:1006D000FF920F931F93CF93DF93FC01C48121E01E
:1006E0002093F501C093D2011092F3011092F4010E
:1006F0008385682B8FE093E00E943603D091F4014C
:10070000D13208F092C00E9431016B017C018091CE
:100710004102811165C082E08093410281E08093B3
:1007200043028FEF8093400210926502D0936402DF
:10073000A3EDB1E0E4E4F2E080E0D81385C01092CC
:10074000660280916602CC0FC82BC093660280912E
:100750004202813009F07CC0109242020E943101B5
:100760006B017C01809166028093BB008091F8014F
:100770009091F901A091FA01B091FB01892B8A2B8C
:100780008B2B99F00E9431010091F8011091F90131
:100790002091FA013091FB016C197D098E099F09A6
:1007A0000617170728073907E0F18091BC0083FD81
:1007B000D9CF85EC8093BC000E9431016B017C0194
:1007C00080914102823009F445C0809140028F3F00
:1007D00061F180914002803241F18091400225C058
:1007E0008091F8019091F901A091FA01B091FB017B
:1007F000892B8A2B8B2B09F48ACF0E94310100911F
:10080000F8011091F9012091FA013091FB016C1966
:100810007D098E099F09061717072807390708F071
:1008200076CF8091F7010E9495021092F301109209
:10083000F4011092F501DF91CF911F910F91FF907C
:10084000EF90DF90CF9008959D9191938F5F75CF3A
:1008500085EEB0CF8091F8019091F901A091FA0155
:10086000B091FB01892B8A2B8B2B09F4A9CF0E9415
:1008700031010091F8011091F9012091FA013091B4
:10088000FB016C197D098E099F09061717072807B8
:10089000390708F095CFC5CF089590E080E008951E
:1008A000FC0101900020E9F73197AF01481B590B7B
:1008B000BC018BE193E00C9488018F929F92AF92E0
:1008C000BF920F931F93CF93DF93CDB7DEB7A1975E
:1008D0000FB6F894DEBF0FBECDBF19A2423008F4A8
:1008E0004AE08E010F5D1F4F842E912CB12CA12C5C
:1008F000A50194010E940D0EE62FB901CA01EA304C
:10090000F4F4E05DD801EE938D01232B242B252BED
:1009100079F790E080E0109719F0CD010E94500423
:10092000A1960FB6F894DEBF0FBECDBFDF91CF9179
:100930001F910F91BF90AF909F908F900895E95CA9
:10094000E1CF0C9450040F931F93CF938C01C62FCB
:100950000E9465036C2F6460C8010E9465036C2FC0
:100960006B7FC8010E94650383EC90E00197F1F76B
:10097000CF911F910F9108950F931F93CF93DF9302
:100980008C01D62FC42F607F642B0E94A30480E1CA
:10099000D89FB00111246C2BC801DF91CF911F911A
:1009A0000F910C94A30441E00E94BC0481E090E00C
:1009B00008954F925F926F927F928F929F92AF9223
:1009C000BF92CF92DF92EF92FF920F931F93CF933C
:1009D0006B017C01742EAC019B010E94080E8823E0
:1009E00099F088E791E0CF911F910F91FF90EF90E0
:1009F000DF90CF90BF90AF909F908F907F906F903F
:100A00005F904F900C94500446015701E894B7F85A
:100A10002FEF3FEF4FE75FE7C501B4010E94080EDB
:100A200081110DC02FEF3FEF4FE75FE7C501B40124
:100A30000E94370C18161CF48CE791E0D4CF2FEFEE
:100A40003FEF4FE75FE4C701B6010E94960D18160D
:100A50001CF480E891E0C7CF2FEF3FEF4FE75FEC4A
:100A6000C701B6010E94370C87FDF3CF20E030E0CC
:100A7000A901C701B6010E94370C10E000E087FF12
:100A80000CC041E06DE28BE193E00E94BC04F7FAF8
:100A9000F094F7F8F09401E010E0C0E060E070E05E
:100AA00080E09FE37C1641F020E030E040E251E43A
:100AB0000E943C0CCF5FF6CFA70196010E94CB0BA2
:100AC0004B015C010E94B50C2B013C014AE00E94E5
:100AD0005D04080F191FCC23C9F1C301B2010E94A4
:100AE000E40C9B01AC01C501B4010E94CA0B4B018F
:100AF0005C0141E06EE28BE193E00E94BC040F5F79
:100B00001F4FC15018F120E030E040E251E4C50130
:100B1000B4010E949B0D2B013C010E94B50C4B01BE
:100B2000B12CA12C4AE0C501B4010E945D04080F5C
:100B3000191FC501B4010E94E40C9B01AC01C30163
:100B4000B2010E94CA0B4B015C01DBCFC801CF91FF
:100B50001F910F91FF90EF90DF90CF90BF90AF90DB
:100B60009F908F907F906F905F904F900895CF935C
:100B7000DF93CDB7DEB728970FB6F894DEBF0FBE70
:100B8000CDBF98E0E0E4F1E0DE01119601900D9216
:100B90009A95E1F790912303961708F46FEF262FAB
:100BA00030E0220F331F41E050E04C0F5D1F240F57
:100BB000351FF9016081680F606840E08BE193E0C8
:100BC00028960FB6F894DEBF0FBECDBFDF91CF9150
:100BD0000C94BC0440E061E08BE193E00E94BC0413
:100BE0008BE39FE10197F1F708950F931F93CF9344
:100BF000DF938B0198E0899FB0011124606440E08D
:100C00008BE193E00E94BC04E801085F1F4F6991EB
:100C10008BE193E00E94D304C017D107C1F7DF91A5
:100C2000CF911F910F9108950F931F93482FE0EBE1
:100C3000F0E06491ECE9F0E0E4918111462FF0E0FE
:100C4000EE0FFF1FE057FF4F8591949100E412E4EF
:100C50002FE030E00E942E08611571058105910595
:100C600029F06F5F7F4F8F4F9F4F9F701F910F91A4
:100C7000089585ED8093BC008091F8019091F90171
:100C8000A091FA01B091FB010796A11DB11D23E0CF
:100C9000B695A795979587952A95D1F72091BC0091
:100CA00024FD03C01092410208954091F801509133
:100CB000F9016091FA017091FB01452B462B472BFE
:100CC00069F30097A105B10541F02AE22A95F1F7F1
:100CD00000C00197A109B109E1CF8091F7010C94FF
:100CE00095021F920F920FB60F9211242F933F93EC
:100CF0008F939F93AF93BF9380916A0290916B0201
:100D0000A0916C02B0916D023091690223E0230F33
:100D10002D3758F50196A11DB11D209369028093CE
:100D20006A0290936B02A0936C02B0936D02809163
:100D30006E0290916F02A0917002B09171020196C3
:100D4000A11DB11D80936E0290936F02A09370025B
:100D5000B0937102BF91AF919F918F913F912F916D
:100D60000F900FBE0F901F90189526E8230F029644
:100D7000A11DB11DD2CF1F920F920FB60F92112459
:100D80002F933F934F935F936F937F938F939F9393
:100D9000AF93BF93EF93FF9382E792E00E94060226
:100DA000FF91EF91BF91AF919F918F917F916F9143
:100DB0005F914F913F912F910F900FBE0F901F9019
:100DC00018951F920F920FB60F9211242F938F93A5
:100DD0009F93EF93FF93E0918202F09183028081D1
:100DE000E0918802F091890282FD1BC09081809180
:100DF0008B028F5F8F7320918C02821741F0E091FC
:100E00008B02F0E0EE58FD4F958F80938B02FF919F
:100E1000EF919F918F912F910F900FBE0F901F9088
:100E200018958081F4CF1F920F920FB60F92112464
:100E30002F933F934F935F936F937F938F939F93E2
:100E4000AF93BF93EF93FF938091B900887F803673
:100E500009F44AC0F0F5883209F4A5C018F58031CC
:100E600009F499C0B8F4882309F4F5C0883009F46E
:100E700092C0FF91EF91BF91AF919F918F917F9120
:100E80006F915F914F913F912F910F900FBE0F90F7
:100E90001F901895883109F486C0803251F78093ED
:100EA000400214C0803409F49BC040F48033B9F38D
:100EB0008833F9F68093400285ECAEC0803509F4A2
:100EC00083C0883509F494C0883499F60E943906A5
:100ED000D0CF883909F48AC038F5883729F050F422
:100EE000883611F0803729F683E080934102109212
:100EF0003F0255C0883809F479C0803919F080382C
:100F000009F0B7CF80913F02803208F06FC0E091C6
:100F10003F0281E08E0F80933F028091BB00F0E0A2
:100F2000E15EFD4F80833BC0803B39F0D0F4803AD6
:100F300009F477C0883A09F09CCF84E0809341029D
:100F400010921E0210921D02F0E0E0E009958091DF
:100F50001D0281110FC081E080931D021092FD01DE
:100F600009C0803C09F4A8CF883C09F4A5CF883B90
:100F700009F07FCFE0911E0281E08E0F80931E0268
:100F8000F0E0E350FE4F80818093BB0090911E0201
:100F900080911D0229C0809166028093BB0085EC80
:100FA0008093BC0066CF909165028091640298178F
:100FB00058F5E091650281E08E0F80936502F0E0C4
:100FC000EC5BFD4F8081E9CFE091650281E08E0FFF
:100FD000809365028091BB00F0E0EC5BFD4F808365
:100FE00090916502809164029817C8F285E8D8CF85
:100FF000E091650281E08E0F809365028091BB00D5
:10100000F0E0EC5BFD4F80838091430281115ECF65
:1010100081E08093420284EA8093BC0010924102F6
:1010200028CF85EC8093BC001092410280913F0252
:10103000803230F4E0913F02F0E0E15EFD4F10823B
:1010400060913F0270E08FE192E0F0E0E0E009950E
:1010500010923F020ECF1092400238CFCF92DF9213
:10106000EF92FF920F931F93E82FF92F05C00150C5
:1010700011092109310961F1908196239417B9F37F
:1010800005C0015011092109310911F19081962300
:101090009413F7CFC12CD12CE12CF12C0AC08FEF87
:1010A000C81AD80AE80AF80A0C151D052E053F05CE
:1010B00079F080818623841791F36C2D7D2D8E2D00
:1010C0009F2D1F910F91FF90EF90DF90CF9008958B
:1010D00060E070E080E090E01F910F91FF90EF9052
:1010E000DF90CF900895E2E7F2E01382128288EE5B
:1010F00093E0A0E0B0E084839583A683B7832CE4DB
:1011000031E03183208325EC30E03587248724ECDF
:1011100030E03787268720EC30E0318B208B21ECC4
:1011200030E0338B228B22EC30E0358B248B26ECA5
:1011300030E0378B268B118E128E138E148EEFE0DB
:10114000F3E01382128284839583A683B7838EE5AE
:1011500091E091838083EBE1F3E01382128280E7D8
:1011600091E09183808380E2848380E1818782E0C3
:10117000828713860895789484B5826084BD84B58F
:10118000816084BD85B5826085BD85B5816085BD82
:1011900080916E00816080936E001092810080913A
:1011A00081008260809381008091810081608093C2
:1011B0008100809180008160809380008091B100E7
:1011C00084608093B1008091B00081608093B00012
:1011D00080917A00846080937A0080917A008260A6
:1011E00080937A0080917A00816080937A00809168
:1011F0007A00806880937A001092C1008091200369
:1012000088608093200312E01093230362E370E070
:1012100080E090E00E945601609126038BE193E00C
:101220000E94650368EE73E080E090E00E94560142
:1012300060E38BE193E00E94A304CBE4D6E4CE010B
:101240000197F1F760E38BE193E00E94A3042197FB
:10125000F1F760E38BE193E00E94A30483E592E061
:101260000197F1F760E28BE193E00E94A3046091A3
:101270002003606240E08BE193E00E94BC0484E0C4
:101280008093210340E06CE08BE193E00E94BC047A
:101290000E94EA051093220340E066E08BE193E0B0
:1012A0000E94BC0440E062E08BE193E00E94BC0439
:1012B0008BE39FE10197F1F788E08093260360E0DC
:1012C0008BE193E00E94650368E371E080E00E9497
:1012D000F50560E371E081E00E94F50568E271E0E8
:1012E00082E00E94F50560E271E083E00E94F5056E
:1012F00068E171E084E00E94F50560E171E085E05D
:101300000E94F50568E071E086E00E94F50560E066
:1013100071E087E00E94F50560E084E00E94B70577
:1013200084E891E00E94A10461E080E00E94B7059A
:1013300060E08BE193E00E94D30461E082E00E94D0
:10134000B70561E08BE193E00E94D30461E084E0A3
:101350000E94B70562E08BE193E00E94D30461E054
:1013600086E00E94B70563E08BE193E00E94D3041E
:1013700061E088E00E94B70564E08BE193E00E94A1
:10138000D30461E08AE00E94B70565E08BE193E059
:101390000E94D30461E08CE00E94B70566E08BE117
:1013A00093E00E94D30461E08EE00E94B70567E0FD
:1013B0008BE193E00E94D30468EE73E080E090E05C
:1013C0000E9456010E94EA0560E08FE00E94E3005F
:1013D00060E08EE00E94E30060E082E00E94E300B3
:1013E00062E083E00E94E300E0918202F0918302D8
:1013F0001083E0917E02F0917F021082E0918002E2
:10140000F09181028FEC808310928A02E091860233
:10141000F091870286E08083E0918402F09185025A
:10142000808180618083E0918402F09185028081D7
:1014300088608083E0918402F091850280818068D9
:101440008083E0918402F091850280818F7D80838A
:1014500091EB292E90E0392E0DE910E0C0E0D0E0AC
:10146000EFE7F0E08491F101E490F801F490F110DD
:1014700026C080916702909168020196909368025D
:101480008093670268EC70E080E090E00E94560173
:1014900080916702909168028230910509F4C0C082
:1014A000ECF4009731F1019709F46CC02097C1F278
:1014B0000E94F2018823A1F20E940000D1CF811185
:1014C0000E948C00EF2DF0E0EE0FFF1FE057FF4F62
:1014D000A591B4918C91E82261F2DACF8330910525
:1014E00009F425C1049711F710926802109267025F
:1014F000DDCF8FE00E941F017C010E94EA0560E0C1
:1015000081E00E94B7058DE891E00E94A104B70137
:10151000FF0C880B990B0E94E60C2AE038E240EAA7
:101520005BE30E949B0D2BE734E146EB50E40E9405
:101530009B0D42E00E94D90487E991E00E94A1043A
:1015400061E086E00E94B70560E08BE193E00E94D5
:10155000D30461E088E00E94B70561E08BE193E08D
:101560000E94D30461E08AE00E94B70562E08BE14B
:1015700093E00E94D30460E971E080E090E00E9473
:10158000560194CF8EE00E941F01BC01990F880B79
:10159000990B0E94E60C2AE038E240EA5BE30E94E5
:1015A0009B0D6B017C010E94EA0560E081E00E94D6
:1015B000B70589E991E00E94A10420E030E040E213
:1015C00050E4C701B6010E94CA0B24EA30E74DE39C
:1015D0005EE30E943C0C26E636E646E45FE30E94AA
:1015E0009B0D42E00E94D90483EA91E00E94A1048D
:1015F00061E086E00E94B70563E08BE193E00E9422
:10160000D30461E088E00E94B70565E08BE193E0D8
:101610000E94D30461E08AE00E94B70566E0A7CF8C
:1016200081E00E9414062B013C0180E00E94140618
:10163000640D751D861D971D812C912C540175011B
:1016400064016115710581059105F1F00E94E40CBA
:101650004B015C01AC019B0160E074E284E799E41A
:101660000E943C0C6B017C01C301B2010E94E40C9E
:10167000A50194010E943C0C20E030E048EC52E4CB
:101680000E949B0D4B015C010E94EA0560E082E034
:101690000E94B70585EA91E00E94A10420E030E0B5
:1016A0004AE754E4C701B6010E94960D18160CF5DE
:1016B00020E030E04AE754E4C701B6010E943C0C48
:1016C00041E00E94D9048CEA91E00E94A10461E00B
:1016D00082E00E94B70581EB91E00E94A10442E004
:1016E000C501B4010E94D90488EB91E00E94A104D5
:1016F00042CFC701B6010E94AE0C6B01770FEE0816
:10170000FF084AE0C701B601F7FE0EC041E06DE2F6
:101710008BE193E00E94BC0466277727CB016C190C
:101720007D098E099F094AE00E945D04CCCF0E948A
:10173000EA0560E084E00E94B7058AEB91E00E9430
:10174000A10461E084E00E94B70583EC91E00E946F
:10175000A10460E082E00E94B70560E08BE193E0C5
:101760000E94D30461E082E00E94B70561E08BE152
:1017700093E00E94D30460E08EE00E94B70562E02F
:101780008BE193E00E94D30461E08EE00E94B705F4
:1017900067E0EDCE5058BB27AA270E94E20B0C94BD
:1017A0005C0D0E944E0D38F00E94550D20F039F46A
:1017B0009F3F19F426F40C944B0D0EF4E095E7FBD3
:1017C0000C94450DE92F0E946D0D58F3BA1762076E
:1017D00073078407950720F079F4A6F50C948F0D14
:1017E0000EF4E0950B2EBA2FA02D0B01B90190013C
:1017F0000C01CA01A0011124FF27591B99F0593F80
:1018000050F4503E68F11A16F040A22F232F342FC7
:101810004427585FF3CF469537952795A795F04015
:101820005395C9F77EF41F16BA0B620B730B840B2A
:10183000BAF09150A1F0FF0FBB1F661F771F881FE2
:10184000C2F70EC0BA0F621F731F841F48F487953A
:1018500077956795B795F7959E3F08F0B0CF93952C
:10186000880F08F09927EE0F9795879508950E94A5
:10187000210D08F481E008950E94500C0C945C0D39
:101880000E94550D58F00E944E0D40F029F45F3F24
:1018900029F00C94450D51110C94900D0C944B0DA6
:1018A0000E946D0D68F39923B1F3552391F3951BB5
:1018B000550BBB27AA2762177307840738F09F5F71
:1018C0005F4F220F331F441FAA1FA9F335D00E2EDE
:1018D0003AF0E0E832D091505040E695001CCAF74B
:1018E0002BD0FE2F29D0660F771F881FBB1F26170E
:1018F00037074807AB07B0E809F0BB0B802DBF01E5
:10190000FF2793585F4F3AF09E3F510578F00C94B3
:10191000450D0C94900D5F3FE4F3983ED4F386950B
:1019200077956795B795F7959F5FC9F7880F911DD4
:101930009695879597F90895E1E0660F771F881FC0
:10194000BB1F621773078407BA0720F0621B730B73
:10195000840BBA0BEE1F88F7E09508950E94B50C32
:101960006894B1110C94900D08950E94750D88F043
:101970009F5798F0B92F9927B751B0F0E1F0660F53
:10198000771F881F991F1AF0BA95C9F714C0B13094
:1019900091F00E948F0DB1E008950C948F0D672F88
:1019A000782F8827B85F39F0B93FCCF386957795C3
:1019B0006795B395D9F73EF49095809570956195AC
:1019C0007F4F8F4F9F4F0895E89409C097FB3EF4D7
:1019D00090958095709561957F4F8F4F9F4F99237C
:1019E000A9F0F92F96E9BB279395F69587957795FA
:1019F0006795B795F111F8CFFAF4BB0F11F460FFBA
:101A00001BC06F5F7F4F8F4F9F4F16C0882311F011
:101A100096E911C0772321F09EE8872F762F05C025
:101A2000662371F096E8862F70E060E02AF09A95C0
:101A3000660F771F881FDAF7880F9695879597F9B5
:101A40000895990F0008550FAA0BE0E8FEEF16164F
:101A50001706E807F907C0F012161306E407F507A2
:101A600098F0621B730B840B950B39F40A2661F016
:101A7000232B242B252B21F408950A2609F4A140B9
:101A8000A6958FEF811D811D089597F99F6780E8C6
:101A900070E060E008959FEF80EC089500240A94C0
:101AA0001616170618060906089500240A94121639
:101AB0001306140605060895092E0394000C11F46C
:101AC000882352F0BB0F40F4BF2B11F460FF04C019
:101AD0006F5F7F4F8F4F9F4F089557FD9058440F72
:101AE000551F59F05F3F71F04795880F97FB991F7D
:101AF00061F09F3F79F0879508951216130614063A
:101B0000551FF2CF4695F1DF08C0161617061806C6
:101B1000991FF1CF86957105610508940895E894A1
:101B2000BB2766277727CB0197F908950E94210DDF
:101B300008F48FEF08950E94AE0D0C945C0D0E9486
:101B40004E0D38F00E94550D20F0952311F00C94A5
:101B5000450D0C944B0D11240C94900D0E946D0DAD
:101B600070F3959FC1F3950F50E0551F629FF001F0
:101B7000729FBB27F00DB11D639FAA27F00DB11D09
:101B8000AA1F649F6627B00DA11D661F829F222792
:101B9000B00DA11D621F739FB00DA11D621F839F19
:101BA000A00D611D221F749F3327A00D611D231FEF
:101BB000849F600D211D822F762F6A2F11249F573D
:101BC00050409AF0F1F088234AF0EE0FFF1FBB1F40
:101BD000661F771F881F91505040A9F79E3F5105FF
:101BE00080F00C94450D0C94900D5F3FE4F3983E0B
:101BF000D4F3869577956795B795F795E7959F5FA9
:101C0000C1F7FE2B880F911D9695879597F908953A
:101C10000E94210D880B990B0895A1E21A2EAA1B90
:101C2000BB1BFD010DC0AA1FBB1FEE1FFF1FA2178C
:101C3000B307E407F50720F0A21BB30BE40BF50B89
:101C4000661F771F881F991F1A9469F76095709512
:101C5000809590959B01AC01BD01CF010895EE0FD9
:0E1C6000FF1F0590F491E02D0994F894FFCF3A
:101C6E000E1B111F1F1F1F1F0E1B1111111F1F1FD8
:101C7E000E1B111111111F1F0E1B11111111111F0E
:101C8E00040E0A0A0A1F000400000A001F110E00AB
:101C9E000103071F1F07030100000A15110A0400A4
:101CAE0000004000140054000000000028028801CB
:101CBE00B5017502E601C401D8010000000036032B
:101CCE0009034D04FB020203FF02FC0200000000A8
:101CDE00D30488014D044C046E616E00696E66007B
:101CEE006F766600424F4F54494E472100564F4C77
:101CFE00544147453A2000560043555252454E54E2
:101D0E003A20004100465245513A2000206B487A55
:101D1E0000445554593A20002500363530313033C1
:0E1D2E0038360054484F4E47434841490000A4
:00000001FF
