:020000040000FA
:100000000C9462000C948A000C948A000C948A0070
:100010000C948A000C948A000C948A000C948A0038
:100020000C948A000C948A000C948A000C948A0028
:100030000C948A000C948A000C948A000C948A0018
:100040000C949E030C948A000C940E040C94E80308
:100050000C948A000C948A000C948A000C948A00F8
:100060000C948A000C948A00000000080002010031
:100070000003040700000000000000000000000072
:10008000250028002B0000000000240027002A0083
:1000900000000000230026002900040404040404D6
:1000A0000404020202020202030303030303010227
:1000B00004081020408001020408102001020408F6
:1000C0001020610611241FBECFEFD8E0DEBFCDBFE8
:1000D00011E0A0E0B1E0E6EFF1E102C005900D9281
:1000E000AE36B107D9F722E0AEE6B1E001C01D920D
:1000F000AA31B207E1F710E0C2E6D0E004C02197D0
:10010000FE010E94F308C136D107C9F70E94850499
:100110000C94F9080C940000CF93DF9390E0FC015D
:10012000E255FF4F249186569F4FFC01849188230E
:10013000C9F090E0880F991FFC01EA57FF4FA59185
:10014000B491FC01E458FF4FC591D49161110DC0E9
:100150009FB7F8948C91209582238C9388812823D3
:1001600028839FBFDF91CF910895623051F49FB7EC
:10017000F8943C91822F809583238C93E8812E2BD9
:10018000EFCF8FB7F894EC912E2B2C938FBFEACF43
:100190008E50806480937C0080917A00806480938C
:1001A0007A0080917A0086FDFCCF80917800909152
:1001B000790008953FB7F8948091790190917A0180
:1001C000A0917B01B0917C0126B5A89B05C02F3F73
:1001D00019F00196A11DB11D3FBFBA2FA92F982F6D
:1001E0008827BC01CD01620F711D811D911D42E068
:1001F000660F771F881F991F4A95D1F708958F9230
:100200009F92AF92BF92CF92DF92EF92FF924B01FB
:100210005C010E94DA006B017C010E94DA006C191B
:100220007D098E099F09683E734081059105A8F3F9
:1002300021E0821A9108A108B10888EEC80E83E077
:10024000D81EE11CF11C81149104A104B10429F70A
:10025000FF90EF90DF90CF90BF90AF909F908F90E6
:100260000895AF92BF92CF92DF92EF92FF920F93D9
:100270001F93CF93DF936C017B018B01040F151F3C
:10028000EB015E01AE18BF08C017D10759F06991A4
:10029000D601ED91FC910190F081E02DC601099508
:1002A000892B79F7C501DF91CF911F910F91FF90B5
:1002B000EF90DF90CF90BF90AF900895FC01538DE9
:1002C000448D252F30E0842F90E0821B930B541730
:1002D00010F0CF96089501970895FC01918D828DBD
:1002E000981761F0A28DAE0FBF2FB11D5D968C9156
:1002F000928D9F5F9F73928F90E008958FEF9FEF95
:100300000895FC01918D828D981731F0828DE80F50
:10031000F11D858D90E008958FEF9FEF0895FC010A
:10032000918D228D892F90E0805C9F4F821B9109D7
:100330008F73992708958DE791E00E948F0121E046
:10034000892B09F420E0822F089580E090E0892B2A
:1003500029F00E949B0181110C9400000895FC017A
:10036000A48DA80FB92FB11DA35ABF4F2C91848D16
:1003700090E001968F739927848FA689B7892C9373
:10038000A089B1898C91837080648C93938D848DC6
:10039000981306C00288F389E02D80818F7D8083C9
:1003A0000895EF92FF920F931F93CF93DF93EC0189
:1003B00081E0888F9B8D8C8D98131AC0E889F9890C
:1003C000808185FF15C09FB7F894EE89FF8960830F
:1003D000E889F98980818370806480839FBF81E090
:1003E00090E0DF91CF911F910F91FF90EF900895D2
:1003F000F62E0B8D10E00F5F1F4F0F731127E02EAD
:100400008C8D8E110CC00FB607FCFACFE889F989E4
:10041000808185FFF5CFCE010E94AF01F1CFEB8D3A
:10042000EC0FFD2FF11DE35AFF4FF0829FB7F894B8
:100430000B8FEA89FB8980818062CFCFCF93DF93D6
:10044000EC01888D8823B9F0AA89BB89E889F989EC
:100450008C9185FD03C0808186FD0DC00FB607FC21
:10046000F7CF8C9185FFF2CF808185FFEDCFCE0154
:100470000E94AF01E9CFDF91CF910895FC01019077
:100480000020E9F73197AF01481B590BBC018DE7FC
:1004900091E00C9431018F929F92AF92BF920F9393
:1004A0001F93CF93DF93CDB7DEB7A1970FB6F89424
:1004B000DEBF0FBECDBF19A2423008F44AE08E0164
:1004C0000F5D1F4F842E912CB12CA12CA5019401FE
:1004D0000E94D108E62FB901CA01EA30F4F4E05DC8
:1004E000D801EE938D01232B242B252B79F790E057
:1004F00080E0109719F0CD010E943E02A1960FB640
:10050000F894DEBF0FBECDBFDF91CF911F910F9149
:10051000BF90AF909F908F900895E95CE1CFCF930B
:10052000DF930E943E02EC0182E191E00E943E02D4
:100530008C0F9D1FDF91CF9108954F925F926F9224
:100540007F928F929F92AF92BF92CF92DF92EF9263
:10055000FF920F931F93CF936B017C01742EAC011C
:100560009B010E94CC08882399F085E191E0CF910E
:100570001F910F91FF90EF90DF90CF90BF90AF90C1
:100580009F908F907F906F905F904F900C943E0261
:1005900046015701E894B7F82FEF3FEF4FE75FE7C9
:1005A000C501B4010E94CC0881110DC02FEF3FEFAF
:1005B0004FE75FE7C501B4010E94FB0618161CF463
:1005C00089E191E0D4CF2FEF3FEF4FE75FE4C70120
:1005D000B6010E945A0818161CF48DE191E0C7CFAD
:1005E0002FEF3FEF4FE75FECC701B6010E94FB061C
:1005F00087FDF3CF20E030E0A901C701B6010E94DA
:10060000FB0610E000E087FF0AC06DE28DE791E095
:100610000E94D1018C01F7FAF094F7F8F094C0E051
:1006200060E070E080E09FE37C1641F020E030E085
:1006300040E251E40E940007CF5FF6CFA701960188
:100640000E948F062B013C010E9479074B015C013F
:100650004AE00E944B027C01E00EF11ECC23C1F166
:10066000C501B4010E94A8079B01AC01C301B201FE
:100670000E948E064B015C016EE28DE791E00E94C4
:10068000D101E80EF91EC15018F120E030E040E23F
:1006900051E4C501B4010E945F082B013C010E9496
:1006A00079074B01B12CA12C4AE0C501B4010E948D
:1006B0004B02E80EF91EC501B4010E94A8079B0178
:1006C000AC01C301B2010E948E064B015C01DBCF7D
:1006D000C701CF911F910F91FF90EF90DF90CF90C6
:1006E000BF90AF909F908F907F906F905F904F9052
:1006F00008950F931F93482FE0EBF0E06491ECE92D
:10070000F0E0E4918111462FF0E0EE0FFF1FE0577B
:10071000FF4F8591949100E412E42FE030E00E94B5
:100720004004611571058105910529F06F5F7F4FC8
:100730008F4F9F4F9F701F910F9108951F920F929F
:100740000FB60F9211242F933F938F939F93AF93E4
:10075000BF938091750190917601A0917701B0913E
:1007600078013091740123E0230F2D3758F501965D
:10077000A11DB11D209374018093750190937601A2
:10078000A0937701B09378018091790190917A01DB
:10079000A0917B01B0917C010196A11DB11D8093B8
:1007A000790190937A01A0937B01B0937C01BF9172
:1007B000AF919F918F913F912F910F900FBE0F900E
:1007C0001F90189526E8230F0296A11DB11DD2CFC8
:1007D0001F920F920FB60F9211242F933F934F93B6
:1007E0005F936F937F938F939F93AF93BF93EF9399
:1007F000FF938DE791E00E94AF01FF91EF91BF91D0
:10080000AF919F918F917F916F915F914F913F91A8
:100810002F910F900FBE0F901F9018951F920F925F
:100820000FB60F9211242F938F939F93EF93FF9303
:10083000E0918D01F0918E018081E0919301F09122
:10084000940182FD1BC09081809196018F5F8F7310
:1008500020919701821741F0E0919601F0E0E35872
:10086000FE4F958F80939601FF91EF919F918F910D
:100870002F910F900FBE0F901F9018958081F4CF8D
:10088000CF92DF92EF92FF920F931F93E82FF92FF1
:1008900005C0015011092109310961F190819623A8
:1008A0009417B9F305C0015011092109310911F15B
:1008B000908196239413F7CFC12CD12CE12CF12CED
:1008C0000AC08FEFC81AD80AE80AF80A0C151D05E5
:1008D0002E053F0579F080818623841791F36C2DD6
:1008E0007D2D8E2D9F2D1F910F91FF90EF90DF900A
:1008F000CF90089560E070E080E090E01F910F914C
:10090000FF90EF90DF90CF900895CF93DF9300D0CA
:1009100000D0CDB7DEB7789484B5826084BD84B54D
:10092000816084BD85B5826085BD85B5816085BDEA
:1009300080916E00816080936E00109281008091A2
:10094000810082608093810080918100816080932A
:100950008100809180008160809380008091B1004F
:1009600084608093B1008091B00081608093B0007A
:1009700080917A00846080937A0080917A0082600E
:1009800080937A0080917A00816080937A008091D0
:100990007A00806880937A001092C10060E08FE056
:1009A0000E948C0060E08EE00E948C0060E082E09B
:1009B0000E948C0062E083E00E948C00E0918D0137
:1009C000F0918E0182E08083E0918901F0918A01AB
:1009D0001082E0918B01F0918C018FEC808310925A
:1009E0009501E0919101F091920186E08083E09180
:1009F0008F01F0919001808180618083E0918F016F
:100A0000F0919001808188608083E0918F01F09166
:100A10009001808180688083E0918F01F091900146
:100A200080818F7D808391EB292E90E0392E0DE916
:100A300010E0EBE6F0E08491F1019491F80124914B
:100A400021112AC0809172019091730101969093B7
:100A500073018093720168EC70E080E090E00E9486
:100A6000FF0080917201909173018230910509F429
:100A7000ADC00CF048C0009709F451C0019709F4CB
:100A800076C080E090E0892BA1F20E949B01882330
:100A900081F20E940000CDCF882339F08330E1F04D
:100AA00088F48130F9F0823009F1E22FF0E0EE0FA6
:100AB000FF1FE057FF4FA591B4918C91982309F443
:100AC000C1CFCFCF8730A9F08830C9F0843069F723
:100AD000809180008F7D03C0809180008F7780930C
:100AE0008000E3CF84B58F7784BDDFCF84B58F7D61
:100AF000FBCF8091B0008F778093B000D6CF8091EC
:100B0000B0008F7DF9CF8330910509F4D7C00497E9
:100B100009F0B7CF1092730110927201B2CF8FE03B
:100B20000E94C8007C0181E291E00E943E02B70170
:100B3000FF0C880B990B0E94AA072AE038E240EAD2
:100B40005BE30E945F0820E030E040EC50E40E944C
:100B50005F0842E00E949D028BE291E00E948F02BA
:100B600064E670E080E090E00E94FF008ACF8EE0B3
:100B70000E94C800BC01990F880B990B0E94AA071C
:100B80002AE038E240EA5BE30E945F086B017C01E7
:100B90008EE291E00E943E0220E030E040E250E42C
:100BA000C701B6010E948E0624EA30E74DE35EE3FA
:100BB0000E9400072DEC3CEC4CE65FE30E945F08CE
:100BC00042E00E949D0288E391E0C8CF81E00E944C
:100BD000790369837A838B839C8380E00E94790305
:100BE00049805A806B807C80460E571E681E791E95
:100BF000812C912C5401750164014114510461044C
:100C0000710411F1C301B2010E94A8074B015C01FC
:100C1000AC019B0160E074E284E799E40E94000764
:100C20006B017C0169817A818B819C810E94A8077C
:100C3000A50194010E94000720E030E048EC52E456
:100C40000E945F084B015C018BE391E00E943E0231
:100C5000C701B6010E9472076B01770FEE08FF080B
:100C60004AE0C701B601F7FE0DC06DE28DE791E0E5
:100C70000E94D10166277727CB016C197D098E0967
:100C80009F094AE00E944B0287E491E00E948F0294
:100C900045284628472869F08BE491E00E943E02EF
:100CA00042E0C501B4010E949D0288E591E00E94E6
:100CB0008F0268EC70E080E090E056CF8BE591E029
:100CC000F6CFEDE7F1E01382128288EE93E0A0E028
:100CD000B0E084839583A683B78384E091E0918319
:100CE000808385EC90E09587848784EC90E09787FB
:100CF000868780EC90E0918B808B81EC90E0938BE9
:100D0000828B82EC90E0958B848B86EC90E0978BC5
:100D1000868B118E128E138E148E08955058BB2719
:100D2000AA270E94A6060C9420080E94120838F0F8
:100D30000E94190820F039F49F3F19F426F40C940E
:100D40000F080EF4E095E7FB0C940908E92F0E94C8
:100D5000310858F3BA17620773078407950720F024
:100D600079F4A6F50C9453080EF4E0950B2EBA2FE7
:100D7000A02D0B01B90190010C01CA01A0011124A1
:100D8000FF27591B99F0593F50F4503E68F11A164D
:100D9000F040A22F232F342F4427585FF3CF4695DE
:100DA00037952795A795F0405395C9F77EF41F1600
:100DB000BA0B620B730B840BBAF09150A1F0FF0FCA
:100DC000BB1F661F771F881FC2F70EC0BA0F621FB6
:100DD000731F841F48F4879577956795B795F795A6
:100DE0009E3F08F0B0CF9395880F08F09927EE0F3B
:100DF0009795879508950E94E50708F481E0089586
:100E00000E9414070C9420080E94190858F00E94B0
:100E1000120840F029F45F3F29F00C9409085111A1
:100E20000C9454080C940F080E94310868F399231D
:100E3000B1F3552391F3951B550BBB27AA276217D6
:100E40007307840738F09F5F5F4F220F331F441FE3
:100E5000AA1FA9F335D00E2E3AF0E0E832D0915017
:100E60005040E695001CCAF72BD0FE2F29D0660F04
:100E7000771F881FBB1F261737074807AB07B0E847
:100E800009F0BB0B802DBF01FF2793585F4F3AF04D
:100E90009E3F510578F00C9409080C9454085F3F6C
:100EA000E4F3983ED4F3869577956795B795F795D3
:100EB0009F5FC9F7880F911D9695879597F90895BB
:100EC000E1E0660F771F881FBB1F62177307840757
:100ED000BA0720F0621B730B840BBA0BEE1F88F766
:100EE000E09508950E9479076894B1110C94540814
:100EF00008950E94390888F09F5798F0B92F9927D4
:100F0000B751B0F0E1F0660F771F881F991F1AF0F4
:100F1000BA95C9F714C0B13091F00E945308B1E0FE
:100F200008950C945308672F782F8827B85F39F0FD
:100F3000B93FCCF3869577956795B395D9F73EF48D
:100F400090958095709561957F4F8F4F9F4F089535
:100F5000E89409C097FB3EF4909580957095619553
:100F60007F4F8F4F9F4F9923A9F0F92F96E9BB2709
:100F70009395F695879577956795B795F111F8CF85
:100F8000FAF4BB0F11F460FF1BC06F5F7F4F8F4FF0
:100F90009F4F16C0882311F096E911C0772321F0E6
:100FA0009EE8872F762F05C0662371F096E8862F7E
:100FB00070E060E02AF09A95660F771F881FDAF7D5
:100FC000880F9695879597F90895990F0008550F02
:100FD000AA0BE0E8FEEF16161706E807F907C0F0BF
:100FE00012161306E407F50798F0621B730B840BC7
:100FF000950B39F40A2661F0232B242B252B21F4A1
:1010000008950A2609F4A140A6958FEF811D811D40
:10101000089597F99F6780E870E060E008959FEF7A
:1010200080EC089500240A9416161706180609067F
:10103000089500240A94121613061406050608954E
:10104000092E0394000C11F4882352F0BB0F40F4D6
:10105000BF2B11F460FF04C06F5F7F4F8F4F9F4F16
:10106000089557FD9058440F551F59F05F3F71F098
:101070004795880F97FB991F61F09F3F79F08795FF
:101080000895121613061406551FF2CF4695F1DF88
:1010900008C0161617061806991FF1CF8695710518
:1010A000610508940895E894BB2766277727CB014C
:1010B00097F908950E94E50708F48FEF08950E94BC
:1010C00072080C9420080E94120838F00E94190837
:1010D00020F0952311F00C9409080C940F081124AA
:1010E0000C9454080E94310870F3959FC1F3950F3A
:1010F00050E0551F629FF001729FBB27F00DB11D9C
:10110000639FAA27F00DB11DAA1F649F6627B00D2B
:10111000A11D661F829F2227B00DA11D621F739F14
:10112000B00DA11D621F839FA00D611D221F749F22
:101130003327A00D611D231F849F600D211D822F69
:10114000762F6A2F11249F5750409AF0F1F0882390
:101150004AF0EE0FFF1FBB1F661F771F881F9150BD
:101160005040A9F79E3F510580F00C9409080C945B
:1011700054085F3FE4F3983ED4F3869577956795DE
:10118000B795F795E7959F5FC1F7FE2B880F911DE7
:101190009695879597F908950E94E507880B990B16
:1011A0000895A1E21A2EAA1BBB1BFD010DC0AA1FA8
:1011B000BB1FEE1FFF1FA217B307E407F50720F0C0
:1011C000A21BB30BE40BF50B661F771F881F991F3B
:1011D0001A9469F760957095809590959B01AC0184
:1011E000BD01CF010895EE0FFF1F0590F491E02D92
:1011F0000994F894FFCF00000000D10131015E0195
:101200001E028F016D0181010D0A006E616E006981
:101210006E66006F766600566F6C746167653A2083
:101220000020560043757272656E743A20002041AA
:10123000004672657175656E63793A200020487AC0
:101240000044757479204379636C653A2000202549
:101250000036353031303338362054686F6E67636E
:041260006861690058
:107E0000112484B714BE81FFF0D085E080938100F7
:107E100082E08093C00088E18093C10086E0809377
:107E2000C20080E18093C4008EE0C9D0259A86E02C
:107E300020E33CEF91E0309385002093840096BBD3
:107E4000B09BFECF1D9AA8958150A9F7CC24DD24C4
:107E500088248394B5E0AB2EA1E19A2EF3E0BF2EE7
:107E6000A2D0813461F49FD0082FAFD0023811F036
:107E7000013811F484E001C083E08DD089C08234E0
:107E800011F484E103C0853419F485E0A6D080C0E4
:107E9000853579F488D0E82EFF2485D0082F10E0AE
:107EA000102F00270E291F29000F111F8ED06801E7
:107EB0006FC0863521F484E090D080E0DECF843638
:107EC00009F040C070D06FD0082F6DD080E0C81688
:107ED00080E7D80618F4F601B7BEE895C0E0D1E017
:107EE00062D089930C17E1F7F0E0CF16F0E7DF06D8
:107EF00018F0F601B7BEE89568D007B600FCFDCFD4
:107F0000A601A0E0B1E02C9130E011968C91119780
:107F100090E0982F8827822B932B1296FA010C0160
:107F200087BEE89511244E5F5F4FF1E0A038BF0790
:107F300051F7F601A7BEE89507B600FCFDCF97BE46
:107F4000E89526C08437B1F42ED02DD0F82E2BD052
:107F50003CD0F601EF2C8F010F5F1F4F84911BD097
:107F6000EA94F801C1F70894C11CD11CFA94CF0C13
:107F7000D11C0EC0853739F428D08EE10CD085E9AC
:107F80000AD08FE07ACF813511F488E018D01DD067
:107F900080E101D065CF982F8091C00085FFFCCF94
:107FA0009093C60008958091C00087FFFCCF809118
:107FB000C00084FD01C0A8958091C6000895E0E648
:107FC000F0E098E1908380830895EDDF803219F02E
:107FD00088E0F5DFFFCF84E1DECF1F93182FE3DFCA
:107FE0001150E9F7F2DF1F91089580E0E8DFEE27F6
:047FF000FF270994CA
:027FFE00040479
:00000001FF
