:100000000C945D000C9485000C9485000C94850084
:100010000C9485000C9485000C9485000C9485004C
:100020000C9485000C9485000C9485000C9485003C
:100030000C9485000C9485000C9485000C9485002C
:100040000C9476030C9485000C94E6030C94C00386
:100050000C9485000C9485000C9485000C9485000C
:100060000C9485000C94850000000008000201003B
:100070000003040700000000000000000000000072
:10008000250028002B0000000000240027002A0083
:10009000040404040404040402020202020203032E
:1000A0000303030301020408102040800102040836
:1000B0001020010204081020180411241FBECFEFE5
:1000C000D8E0DEBFCDBF11E0A0E0B1E0E8E2FDE0A6
:1000D00002C005900D92A032B107D9F721E0A0E24D
:1000E000B1E001C01D92A23EB207E1F710E0CDE5FC
:1000F000D0E004C02197FE010E947806CC35D107DC
:10010000C9F70E9479040C9492060C94000090E0C8
:10011000FC01EC55FF4F249180579F4FFC018491C7
:10012000882399F090E0880F991FFC01EA57FF4F50
:10013000A591B491FC01E458FF4F859194918FB73C
:10014000F894EC91E22BEC938FBF089590E0FC01C2
:10015000E859FF4F2491FC01EC55FF4F3491FC010D
:10016000E057FF4FE491EE23C9F0222339F023300A
:1001700001F1A8F4213019F1223029F1F0E0EE0F5D
:10018000FF1FE458FF4FA591B4918FB7F894EC91FD
:10019000611126C030953E233C938FBF08952730D0
:1001A000A9F02830C9F0243049F7809180008F7D74
:1001B00003C0809180008F7780938000DFCF84B56B
:1001C0008F7784BDDBCF84B58F7DFBCF8091B0006E
:1001D0008F778093B000D2CF8091B0008F7DF9CF20
:1001E0003E2BDACFCF93DF93EC018091D001909139
:1001F000D101029749F4C130D10509F43BC06CF537
:1002000060E0209709F437C08091D0019091D1012E
:10021000049749F4C130D10509F45CC00CF037C033
:10022000209709F442C08091D0019091D1010597A7
:1002300009F0E5C0CA30D10508F0E1C0FE01ED5D6E
:10024000FE4F0C94780682018E019F01B501D0010A
:10025000D201D901E501F601FD01C230D105A9F0B5
:1002600060E0C330D10581F68091D4010E94A600E0
:1002700060E006C061E08091D4010E94A60061E0C8
:100280008091D6010E94A600BFCF61E0EDCFC230C1
:10029000D10539F1C330D10509F0C5CF61E08091B6
:1002A000D4010E94A60060E022C061E08091D401E8
:1002B0000E94A60060E08091D6010E94A60061E045
:1002C0008091D8010E94A60060E08091DA010E942E
:1002D000A600A9CF60E08091D4010E94A60061E051
:1002E000EACF60E08091D4010E94A60061E0809195
:1002F000D6010E94A60060E08091D8010E94A6006D
:1003000061E0E3CF60E08091D4010E94A60061E04B
:100310008091D6010E94A60061E00BC060E0809150
:10032000D4010E94A60061E08091D6010E94A6003F
:1003300060E08091D8010E94A60060E010C060E0FB
:100340008091D4010E94A60061E08091D6010E94B4
:10035000A60060E08091D8010E94A60061E0809133
:10036000DA010E94A60061E015C060E08091D4012E
:100370000E94A60061E08091D6010E94A60060E084
:100380008091D8010E94A60061E08091DA010E946C
:10039000A60060E08091DC01DF91CF910C94A60073
:1003A00061E0E4CF61E08091D4010E94A60060E0AA
:1003B000E2CF61E08091D4010E94A60060E08091CC
:1003C000D6010E94A60061E0DBCF61E08091D401FC
:1003D0000E94A60060E08091D6010E94A60061E024
:1003E0008091D8010E94A60060E0CFCF61E08091AB
:1003F000D4010E94A60060E08BCF60E0F8CFDF91CF
:10040000CF9108953FB7F8948091270190912801EA
:10041000A0912901B0912A0126B5A89B05C02F3FC4
:1004200019F00196A11DB11D3FBFBA2FA92F982F1A
:100430008827BC01CD01620F711D811D911D42E015
:10044000660F771F881F991F4A95D1F708958F92DD
:100450009F92AF92BF92CF92DF92EF92FF920E9453
:1004600002024B015C018AE0C82ED12CE12CF12C58
:100470000E940202681979098A099B09683E734043
:1004800081059105A8F321E0C21AD108E108F1081D
:1004900088EE880E83E0981EA11CB11CC114D10403
:1004A000E104F10429F7FF90EF90DF90CF90BF9027
:1004B000AF909F908F900895AF92BF92CF92DF92AE
:1004C000EF92FF920F931F93CF93DF936C017B0109
:1004D0008B01040F151FEB015E01AE18BF08C0179A
:1004E000D10759F06991D601ED91FC910190F0810D
:1004F000E02DC6010995892B79F7C501DF91CF91D0
:100500001F910F91FF90EF90DF90CF90BF90AF9031
:100510000895FC01538D448D252F30E0842F90E009
:10052000821B930B541710F0CF96089501970895EE
:10053000FC01918D828D981761F0A28DAE0FBF2FB7
:10054000B11D5D968C91928D9F5F9F73928F90E00D
:1005500008958FEF9FEF0895FC01918D828D98177C
:1005600031F0828DE80FF11D858D90E008958FEFB9
:100570009FEF0895FC01918D228D892F90E0805C82
:100580009F4F821B91098F73992708958BE291E009
:100590000E94BA0221E0892B09F420E0822F0895FD
:1005A00080E090E0892B29F00E94C60281110C9412
:1005B00000000895FC01A48DA80FB92FB11DA35A06
:1005C000BF4F2C91848D90E001968F739927848F73
:1005D000A689B7892C93A089B1898C918370806496
:1005E0008C93938D848D981306C00288F389E02D37
:1005F00080818F7D80830895EF92FF920F931F93E8
:10060000CF93DF93EC0181E0888F9B8D8C8D9813C5
:100610001AC0E889F989808185FF15C09FB7F894D1
:10062000EE89FF896083E889F9898081837080641D
:1006300080839FBF81E090E0DF91CF911F910F9168
:10064000FF90EF900895F62E0B8D10E00F5F1F4F77
:100650000F731127E02E8C8D8E110CC00FB607FC86
:10066000FACFE889F989808185FFF5CFCE010E9414
:10067000DA02F1CFEB8DEC0FFD2FF11DE35AFF4FA6
:10068000F0829FB7F8940B8FEA89FB8980818062A2
:10069000CFCFCF93DF93EC01888D8823B9F0AA895F
:1006A000BB89E889F9898C9185FD03C0808186FD2D
:1006B0000DC00FB607FCF7CF8C9185FFF2CF80817C
:1006C00085FFEDCFCE010E94DA02E9CFDF91CF9115
:1006D0000895FC0101900020E9F73197AF01481B14
:1006E000590BBC018BE291E00C945C021F920F92BB
:1006F0000FB60F9211242F933F938F939F93AF9335
:10070000BF938091230190912401A0912501B09184
:1007100026013091220123E0230F2D3758F5019651
:10072000A11DB11D209322018093230190932401E8
:10073000A0932501B0932601809127019091280173
:10074000A0912901B0912A010196A11DB11D8093AC
:10075000270190932801A0932901B0932A01BF910A
:10076000AF919F918F913F912F910F900FBE0F905E
:100770001F90189526E8230F0296A11DB11DD2CF18
:100780001F920F920FB60F9211242F933F934F9306
:100790005F936F937F938F939F93AF93BF93EF93E9
:1007A000FF938BE291E00E94DA02FF91EF91BF91FB
:1007B000AF919F918F917F916F915F914F913F91F9
:1007C0002F910F900FBE0F901F9018951F920F92B0
:1007D0000FB60F9211242F938F939F93EF93FF9354
:1007E000E0913B01F0913C018081E0914101F09169
:1007F000420182FD1BC09081809144018F5F8F7305
:1008000020914501821741F0E0914401F0E0E55D5F
:10081000FE4F958F80934401FF91EF919F918F91AF
:100820002F910F900FBE0F901F9018958081F4CFDD
:10083000CF93DF93EBE2F1E01382128288EE93E034
:10084000A0E0B0E084839583A683B78384E091E041
:100850009183808385EC90E09587848784EC90E099
:100860009787868780EC90E0918B808B81EC90E07D
:10087000938B828B82EC90E0958B848B86EC90E05E
:10088000978B868B118E128E138E148EC8ECD1E04E
:100890001B861A86198218821E8A1F8A188E198E44
:1008A00086EF97E09F838E8388E090E09D878C871A
:1008B00089E090E09F878E878AE090E0998B888B13
:1008C0008BE090E09B8B8A8B88E00E9487008E856E
:1008D0000E94870088890E9487008A890E94870079
:1008E0001D8A1C8A84E090E099878887DF91CF91E8
:1008F0000895CF93DF93CDB7DEB7A1970FB6F894E5
:10090000DEBF0FBECDBF789484B5826084BD84B550
:10091000816084BD85B5826085BD85B5816085BDFA
:1009200080916E00816080936E00109281008091B2
:10093000810082608093810080918100816080933A
:100940008100809180008160809380008091B1005F
:1009500084608093B1008091B00081608093B0008A
:1009600080917A00846080937A0080917A0082601E
:1009700080937A0080917A00816080937A008091E0
:100980007A00806880937A001092C1002091CE0195
:100990003091CF01032E000C440B550B60E077E83B
:1009A00083E993E00E945906CA01B9012AE030E0C8
:1009B00040E050E00E9459062093CA013093CB01D9
:1009C0004093CC015093CD01E0913B01F0913C016B
:1009D00082E08083E0913701F09138011082E0914C
:1009E0003901F0913A018FEC808310924301E0913C
:1009F0003F01F091400186E08083E0913D01F0915C
:100A00003E01808180618083E0913D01F0913E0153
:100A1000808188608083E0913D01F0913E0180817A
:100A200080688083E0913D01F0913E0180818F7D5F
:100A300080839AE0292E312C2AE0422E512C612C01
:100A4000712C20E420937C0080917A008064809354
:100A50007A0080917A0086FDFCCFC0907800D0901B
:100A6000790080912001909121018601081B190BCA
:100A7000C80117FF04C088279927801B910B049792
:100A80000CF480C0101611060CF4D8C041E050E000
:100A90005093C9014093C8018DEFE82EFF24F394D1
:100AA000E114F10409F46CC00E9402028090DE019E
:100AB0009090DF01A090E001B090E1019B01AC01BA
:100AC000281939094A095B0949015A012091CA01CB
:100AD0003091CB014091CC015091CD01821693060B
:100AE000A406B506E8F26093DE017093DF018093FF
:100AF000E0019093E1018091D2019091D301209186
:100B0000C8013091C9012130310531F5019690932A
:100B1000D3018093D2012091CE013091CF01821771
:100B2000930721F41092D3011092D20131E0E31A1D
:100B3000F1088091D2019091D3012091D0013091A0
:100B4000D101B1012530310511F064E070E00E945F
:100B500023060E94F200A4CF892B41F48091CE019C
:100B60009091CF019093D3018093D2018091D201D3
:100B70009091D30101979093D3018093D201D6CF66
:100B80000E942702D0922101C092200182E191E0CF
:100B90000E9469036801110FEE08FF08F7FE38C0D4
:100BA0006DE28BE291E00E94FC0222273327A9012B
:100BB0002C193D094E095F0919A2CE0181967C01CD
:100BC000CA01B901A30192010E943706605DF701D5
:100BD00062937F01211531054105510589F7E11423
:100BE000F10419F0C7010E9469038DE191E00E94B0
:100BF00069030E94270220E030E0232B09F421CF73
:100C00000E94C602882309F41CCF0E94000019CF5D
:100C1000A701960119A2CE0181967C01CA01B901F2
:100C2000A30192010E943706605DF70162937F0184
:100C3000211531054105510589F7D1CF1092C90120
:100C40001092C80129CF97FB072E16F4009407D005
:100C500077FD09D00E947E0607FC05D03EF49095F2
:100C600081959F4F0895709561957F4F0895A1E2FA
:100C70001A2EAA1BBB1BFD010DC0AA1FBB1FEE1F16
:100C8000FF1FA217B307E407F50720F0A21BB30B61
:100C9000E40BF50B661F771F881F991F1A9469F7DD
:100CA00060957095809590959B01AC01BD01CF0139
:100CB0000895052E97FB1EF400940E94700657FDC0
:100CC00007D00E94370607FC03D04EF40C94700640
:100CD00050954095309521953F4F4F4F5F4F089568
:100CE00090958095709561957F4F8F4F9F4F089598
:100CF000EE0FFF1F0590F491E02D0994AA1BBB1B7A
:100D000051E107C0AA1FBB1FA617B70710F0A61B0B
:100D1000B70B881F991F5A95A9F780959095BC012C
:080D2000CD010895F894FFCF06
:100D280000000000FC025C0289024903BA02980232
:100D3800AC02446966662056616C3A20000D0A00D0
:00000001FF
