:100000000C945C000C9479000C9479000C947900A9
:100010000C9479000C9479000C9479000C9479007C
:100020000C9479000C9479000C9479000C9479006C
:100030000C9479000C9479000C9479000C9479005C
:100040000C9407010C9479000C9479000C947900BD
:100050000C9479000C9479000C9479000C9479003C
:100060000C9479000C947900000000002400270013
:100070002A0000000000250028002B0004040404CE
:100080000404040402020202020203030303030342
:10009000010204081020408001020408102001021F
:1000A00004081020000000080002010000030407FB
:1000B000000000000000000011241FBECFEFD8E0B8
:1000C000DEBFCDBF11E0A0E0B1E0E8EEF3E002C09A
:1000D00005900D92A830B107D9F721E0A8E0B1E072
:1000E00001C01D92A131B207E1F70E9451010C94A9
:1000F000F2010C94000090E0FC01EC55FF4F2491BC
:10010000FC01E057FF4F3491FC01E458FF4FE491AC
:10011000EE23C9F0222339F0233001F1A8F4213075
:1001200019F1223029F1F0E0EE0FFF1FEE58FF4FDA
:10013000A591B4918FB7F894EC91611126C03095D8
:100140003E233C938FBF08952730A9F02830C9F093
:10015000243049F7809180008F7D03C0809180001A
:100160008F7780938000DFCF84B58F7784BDDBCF1E
:1001700084B58F7DFBCF8091B0008F778093B000E6
:10018000D2CF8091B0008F7DF9CF3E2BDACF3FB731
:10019000F89480910D0190910E01A0910F01B09102
:1001A000100126B5A89B05C02F3F19F00196A11D8F
:1001B000B11D3FBFBA2FA92F982F8827BC01CD01B1
:1001C000620F711D811D911D42E0660F771F881F10
:1001D000991F4A95D1F70895CF93C82F61E080FF0A
:1001E00060E084E00E947B0061E0C1FF60E085E0A8
:1001F0000E947B0061E0C2FF60E086E00E947B001D
:1002000061E0C3FF60E087E0CF910C947B001F9218
:100210000F920FB60F9211242F933F938F939F93BA
:10022000AF93BF938091090190910A01A0910B01B6
:10023000B0910C013091080123E0230F2D3758F5C0
:100240000196A11DB11D209308018093090190938F
:100250000A01A0930B01B0930C0180910D019091C4
:100260000E01A0910F01B09110010196A11DB11DC9
:1002700080930D0190930E01A0930F01B093100194
:10028000BF91AF919F918F913F912F910F900FBE92
:100290000F901F90189526E8230F0296A11DB11DFF
:1002A000D2CF789484B5826084BD84B5816084BDEA
:1002B00085B5826085BD85B5816085BD80916E0004
:1002C000816080936E001092810080918100826035
:1002D0008093810080918100816080938100809172
:1002E00080008160809380008091B1008460809361
:1002F000B1008091B00081608093B00080917A005D
:10030000846080937A0080917A00826080937A0082
:1003100080917A00816080937A0080917A00806871
:1003200080937A001092C100A0E0B1E024E031E0B7
:100330008D9190E0FC01E057FF4F449184589F4F0E
:10034000FC018491882399F090E0880F991FFC01AB
:10035000E859FF4FC591D491FC01EE58FF4F8591AC
:1003600094918FB7F894E881E42BE8838FBF2A1724
:100370003B07F1F6C3E0D0E004E011E0F801819121
:100380008F010E94EC000E94C7006B017C0188E194
:10039000882E99249394A12CB12C0E94C7006C192B
:1003A0007D098E099F09683E734081059105A8F378
:1003B000F1E08F1A9108A108B10828EEC20E23E0DF
:1003C000D21EE11CF11C81149104A104B10429F78F
:1003D000F1E008301F0791F6219771F680E00E9446
:0803E000EC00FFCFF894FFCF01
:0803E8000405060708040201E8
:00000001FF
