:100000000C9458000C9480000C9480000C94800098
:100010000C9480000C9480000C9480000C94800060
:100020000C9480000C9480000C9480000C94800050
:100030000C9480000C9480000C9480000C94800040
:100040000C94BC040C9480000C9480000C948000F0
:100050000C9480000C9480000C9480000C94800020
:100060000C9406050C948000000000002500280078
:100070002B00040404040404040402020202020229
:10008000030303030303010204081020408001025C
:1000900004081020010204081020000000080002DB
:1000A0000100000304070000000000000000250616
:1000B00011241FBECFEFD8E0DEBFCDBF11E0A0E01E
:1000C000B1E0E8EBFFE002C005900D92A834B10763
:1000D000D9F724E0A8E4B1E001C01D92A133B20732
:1000E000E1F710E0C8E5D0E004C02197FE010E94CE
:1000F000D407C735D107C9F70E9450060C94DA0718
:100100000C94000090E0FC01E656FF4F2491FC01A6
:10011000EA57FF4F3491FC01EE58FF4FE491EE2374
:10012000C9F0222339F0233001F1A8F4213019F16C
:10013000223029F1F0E0EE0FFF1FE859FF4FA591A3
:10014000B4918FB7F894EC91611126C030953E239D
:100150003C938FBF08952730A9F02830C9F0243090
:1001600049F7809180008F7D03C0809180008F7758
:1001700080938000DFCF84B58F7784BDDBCF84B5DB
:100180008F7DFBCF8091B0008F778093B000D2CF6E
:100190008091B0008F7DF9CF3E2BDACF3FB7F89436
:1001A0008091B9039091BA03A091BB03B091BC03B5
:1001B00026B5A89B05C02F3F19F00196A11DB11DC2
:1001C0003FBFBA2FA92F982F8827BC01CD01620FFE
:1001D000711D811D911D42E0660F771F881F991FB9
:1001E0004A95D1F708958F929F92AF92BF92CF9286
:1001F000DF92EF92FF924B015C010E94CE006B01F7
:100200007C010E94CE006C197D098E099F09683E11
:10021000734081059105A8F321E0821A9108A10895
:10022000B10888EEC80E83E0D81EE11CF11C8114D1
:100230009104A104B10429F7FF90EF90DF90CF90D3
:10024000BF90AF909F908F90089508950895AF92BA
:10025000BF92CF92DF92EF92FF920F931F93CF93B3
:10026000DF936C017B018B01040F151FEB015E0115
:10027000AE18BF08C017D10759F06991D601ED91AA
:10028000FC910190F081E02DC6010995892B79F749
:10029000C501DF91CF911F910F91FF90EF90DF90FB
:1002A000CF90BF90AF900895089520918901260FB7
:1002B0003327331F21323105ECF42091E303FC0195
:1002C00090E080E0243069F082E00895A0918901F7
:1002D0002191AC0147595E4FA40FB52FB11D2C934E
:1002E0000196861798F380918901680F60938901C0
:1002F00080E0089581E008951092E30381E0809307
:10030000E2031092BD0361E082E10E94820061E09D
:1003100083E10E948200E9EBF0E080818E7F8083A0
:1003200080818D7F808388E48093B80085E480930A
:10033000BC000895CF93DF9391E0909368018823E8
:10034000B9F0C091B800D091BA008091BC008A7B0E
:100350008093BC0060E082E10E94820060E083E163
:100360000E9482000E947C01D093BA00C093B80022
:10037000DF91CF910895CF92DF92EF92FF920F938A
:100380001F93CF93DF93D0910C0481E0D13208F01A
:100390009CC0C0910B040E94CE006B017C01809137
:1003A000E30381116CC082E08093E30381E08093DA
:1003B000E2038FEF8093E1031092E003D093DF0319
:1003C000ABEEB3E0EFEBF3E080E0D8138DC010921A
:1003D000BE038091BE03CC0FC82BC093BE03809197
:1003E000BD03813009F084C01092BD030E94CE008D
:1003F0006B017C018091BE038093BB008091E5037B
:100400009091E603A091E703B091E803892B8A2B32
:100410008B2BA1F00E94CE000091E5031091E60322
:100420002091E7033091E8036C197D098E099F093B
:10043000061717072807390708F442C08091BC0047
:1004400083FDD8CF85EC8093BC000E94CE006B0169
:100450007C018091E303823009F44CC08091E10378
:100460008F3F09F469C08091E103803209F466C0CE
:100470008091E103803309F463C084E026C0809159
:10048000E5039091E603A091E703B091E803892B7F
:100490008A2B8B2B09F483CF0E94CE000091E503B9
:1004A0001091E6032091E7033091E8036C197D0970
:1004B0008E099F09061717072807390708F06FCF1D
:1004C0008091E4030E949A0185E01092EA03109261
:1004D0000C041092E903DF91CF911F910F91FF90CF
:1004E000EF90DF90CF9008959D9191938F5F6DCFA6
:1004F00085EEA9CF8091E5039091E603A091E703F3
:10050000B091E803892B8A2B8B2B09F4A2CF0E9490
:10051000CE000091E5031091E6032091E7033091AE
:10052000E8036C197D098E099F090617170728072C
:10053000390708F08ECFC4CF80E0C7CF82E0C5CFA7
:1005400083E0C3CF0895E091B1018091B001E81735
:1005500030F4F0E0E85BFE4F808190E008958FEF8B
:100560009FEF08959091B1018091B0012FEF3FEF7F
:10057000981748F4E92FF0E0E85BFE4F208130E067
:100580009F5F9093B101C90108958091B00190914E
:10059000B101891B990B0895CF92DF92EF92FF92E0
:1005A0000F931F93CF93DF937C01CB018A0120919E
:1005B000E903222389F0EB016B01C40ED51ECC1593
:1005C000DD0569F06991D701ED91FC910190F08111
:1005D000E02DC7010995F3CF642F0E945501C80192
:1005E000DF91CF911F910F91FF90EF90DF90CF900F
:1005F0000895CF93DF931F92CDB7DEB76983209123
:10060000E9032223F9F020910C04203258F021E074
:1006100030E0FC013383228390E080E00F90DF9193
:10062000CF9108958091EA03E82FF0E0E551FC4F67
:10063000998190838F5F8093EA0380930C0481E01B
:1006400090E0ECCF61E0CE0101960E945501F7CF1A
:10065000FC01248131E03093E90320930B041092D4
:10066000EA0310920C048385682B8DE094E00E94CD
:10067000F9020C94BB0190E080E008950F931F9362
:10068000CF938C01C62F0E9428036C2F6460C80191
:100690000E9428036C2F6B7FC8010E94280383EC03
:1006A00090E00197F1F7CF911F910F9108950F936B
:1006B0001F93CF93DF938C01D62FC42F607F642BC1
:1006C0000E943E0380E1D89FB00111246C2BC80129
:1006D000DF91CF911F910F910C943E03CF93DF9345
:1006E000CDB7DEB728970FB6F894DEBF0FBECDBFEB
:1006F00028E0E0E0F1E0DE01119601900D922A95EC
:10070000E1F7FC012085241708F44FEF50E0440F77
:10071000551F21E030E02C0F3D1F420F531FFA01FF
:100720002081620F606840E028960FB6F894DEBF23
:100730000FBECDBFDF91CF910C94570341E00E94D3
:10074000570381E090E008950F931F93CF93DF93B9
:10075000EC011092B1011092B0011092EA031092D4
:100760000C040E947C0185E291E09093AF0180939C
:10077000AE0186E291E09093AD018093AC011D82C1
:100780008A85823010F098E09D83888762E370E06C
:1007900080E090E00E94F3006B85CE010E94280368
:1007A00068EE73E080E090E00E94F30060E3CE0129
:1007B0000E943E030BE416E4C8010197F1F760E3E1
:1007C000CE010E943E03C8010197F1F760E3CE011C
:1007D0000E943E0383E592E00197F1F760E2CE01CB
:1007E0000E943E036D81606240E0CE010E9457038B
:1007F00084E08E8340E06CE0CE010E94570340E02D
:1008000061E0CE010E9457030BE31FE1C80101978D
:10081000F1F782E08F8340E066E0CE010E9457034B
:1008200040E062E0CE010E945703C8010197F1F752
:10083000DF91CF911F910F9108958F929F92AF9268
:10084000BF92EF92FF920F931F93CF93DF93CDB799
:10085000DEB7A1970FB6F894DEBF0FBECDBF7C0107
:10086000FA01CB0119A2223008F42AE08E010F5DB3
:100870001F4F822E912CB12CA12CBF01A5019401F8
:100880000E94B207F901CA016A304CF5605DD801D7
:100890006E938D01232B242B252B79F790E080E09C
:1008A000109761F0FD0101900020E9F73197AF0149
:1008B0004A1B5B0BBD01C7010E942701A1960FB621
:1008C000F894DEBF0FBECDBFDF91CF911F910F9186
:1008D000FF90EF90BF90AF909F908F900895695CCC
:1008E000D6CFAC01990F660B770B20E189E194E03C
:1008F0000C941D04FB0101900020E9F73197AF0132
:10090000461B570B0C94270185ED8093BC0080910A
:10091000E5039091E603A091E703B091E803079601
:10092000A11DB11D23E0B695A795979587952A95AA
:10093000D1F72091BC0024FD03C01092E303089579
:100940004091E5035091E6036091E7037091E8035D
:10095000452B462B472B69F30097A105B10541F0C4
:100960002AE22A95F1F700C00197A109B109E1CF68
:100970008091E4030C949A011F920F920FB60F928C
:1009800011242F933F938F939F93AF93BF938091A5
:10099000B5039091B603A091B703B091B80330911D
:1009A000B40323E0230F2D3758F50196A11DB11D87
:1009B0002093B4038093B5039093B603A093B70339
:1009C000B093B8038091B9039091BA03A091BB038F
:1009D000B091BC030196A11DB11D8093B903909302
:1009E000BA03A093BB03B093BC03BF91AF919F9197
:1009F0008F913F912F910F900FBE0F901F901895E0
:100A000026E8230F0296A11DB11DD2CF1F920F928F
:100A10000FB60F9211242F933F934F935F936F93D1
:100A20007F938F939F93AF93BF93EF93FF938091A7
:100A3000B900887F803609F44AC0F0F5883209F49D
:100A4000A7C018F5803109F49BC0B8F4882309F4D5
:100A5000F9C0883009F494C0FF91EF91BF91AF9134
:100A60009F918F917F916F915F914F913F912F91C6
:100A70000F900FBE0F901F901895883109F488C011
:100A8000803251F78093E10314C0803409F49DC093
:100A900040F48033B9F38833F9F68093E10385ECB1
:100AA000B0C0803509F485C0883509F496C0883413
:100AB00099F60E948404D0CF883909F48CC038F5A7
:100AC000883729F050F4883611F0803729F683E012
:100AD0008093E3031092AB0157C0883809F47BC0C0
:100AE000803919F0803809F0B7CF8091AB0180329E
:100AF00008F071C0E091AB0181E08E0F8093AB01F3
:100B00008091BB00F0E0E557FE4F80833DC0803B05
:100B100039F0E0F4803A09F479C0883A09F09CCFC2
:100B200084E08093E30310928A0110928901E0919E
:100B3000AE01F091AF0109958091890181110FC03B
:100B400081E0809389011092690109C0803C09F419
:100B5000A6CF883C09F4A3CF883B09F07DCFE09174
:100B60008A0181E08E0F80938A01F0E0E759FE4F01
:100B700080818093BB0090918A018091890129C076
:100B80008091BE038093BB0085EC8093BC0064CF52
:100B90009091E0038091DF03981758F5E091E0030E
:100BA00081E08E0F8093E003F0E0E154FC4F808100
:100BB000E9CFE091E00381E08E0F8093E003809124
:100BC000BB00F0E0E154FC4F80839091E003809102
:100BD000DF039817C8F285E8D8CFE091E00381E001
:100BE0008E0F8093E0038091BB00F0E0E154FC4F56
:100BF00080838091E20381115CCF81E08093BD030B
:100C000084EA8093BC001092E30326CF85EC8093A6
:100C1000BC001092E3038091AB01803230F4E0918C
:100C2000AB01F0E0E557FE4F10826091AB0170E040
:100C3000E091AC01F091AD018BE891E00995109243
:100C4000AB010ACF1092E10334CFEDE0F4E0138260
:100C5000128288EE93E0A0E0B0E084839583A683BF
:100C6000B7838CE091E091838083E5E2F4E0138226
:100C700012822EE131E0318320838FE3848390E17F
:100C8000918782E082871386E9E1F4E01382128281
:100C9000318320832EE324839187828713860895EE
:100CA000789484B5826084BD84B5816084BD85B547
:100CB000826085BD85B5816085BD80916E00816053
:100CC00080936E00109281008091810082608093F9
:100CD00081008091810081608093810080918000FB
:100CE0008160809380008091B10084608093B10026
:100CF0008091B00081608093B00080917A00846020
:100D000080937A0080917A00826080937A0080914B
:100D10007A00816080937A0080917A008068809365
:100D20007A001092C1001092B1011092B0010E949D
:100D30007C0185E291E09093AF018093AE0186E261
:100D400091E09093AD018093AC01C8E0D0E010E059
:100D500001E00093E903C0930B041092EA031092A0
:100D60000C040E94BB0181110EC0FE01EE0FFF1F9B
:100D7000EC54FD4FD183C0831F5F61E070E080E0E1
:100D800090E00E94F3002196C837D10511F78091B9
:100D9000B2029091B302E4EBF2E044EB53E0219114
:100DA00031912115310541F0DC01AA0FBB1FAE5472
:100DB000BE4F2D933C9301964E175F0781F790939A
:100DC000B3028093B20285E294E00E94A403C8E0DB
:100DD000C093300460E085E294E00E94280340E084
:100DE00062E085E294E00E946E0366E271E085E2D3
:100DF00094E00E947A0441E061E085E294E00E9480
:100E00006E0362E371E085E294E00E947A0441E0BF
:100E100067E085E294E00E946E03412F50E070E0AD
:100E200060E02AE085E294E00E941D0469E371E03D
:100E300085E294E00E947A0489E194E00E94A40390
:100E4000C093240460E089E194E00E94280340E01C
:100E500060E089E194E00E946E0362E471E089E160
:100E600094E00E947A048091B2019091B3010E94B3
:100E7000710465E471E089E194E00E947A0440E045
:100E800066E089E194E00E946E0362E471E089E12A
:100E900094E00E947A048091B4019091B5010E947F
:100EA000710465E471E089E194E00E947A0440E015
:100EB0006CE089E194E00E946E0362E471E089E1F4
:100EC00094E00E947A048091B6019091B7010E944B
:100ED000710441E060E089E194E00E946E0362E405
:100EE00071E089E194E00E947A048091B8019091C8
:100EF000B9010E94710465E471E089E194E00E9407
:100F00007A0441E066E089E194E00E946E0362E4C5
:100F100071E089E194E00E947A048091BA01909195
:100F2000BB010E94710465E471E089E194E00E94D4
:100F30007A0441E06CE089E194E00E946E0362E48F
:100F400071E089E194E00E947A048091BC01909163
:100F5000BD010E947104C0E0D0E02097F1F30E942F
:100F60000000FBCFA1E21A2EAA1BBB1BFD010DC086
:100F7000AA1FBB1FEE1FFF1FA217B307E407F50749
:100F800020F0A21BB30BE40BF50B661F771F881F25
:100F9000991F1A9469F760957095809590959B01BB
:100FA000AC01BD01CF010895EE0FFF1F0590F49134
:080FB000E02D0994F894FFCF35
:100FB800000040001400540000000000F902CC02B8
:100FC8003B03A202C502B202A302000000009E0376
:100FD80027013B035401493243205343414E4E45B8
:100FE8005200466F756E642000204465766963651B
:080FF80073003078002C0000AA
:00000001FF
