:020000040000FA
:100000000C945D000C9485000C9485000C94850084
:100010000C9485000C9485000C9485000C9485004C
:100020000C9485000C9485000C9485000C94CF03EF
:100030000C9485000C9485000C9485000C9485002C
:100040000C942D030C9485000C949D030C94770361
:100050000C9485000C9485000C9485000C9485000C
:100060000C9485000C9485000000000024002700FB
:100070002A0000000000250028002B0004040404CE
:100080000404040402020202020203030303030342
:10009000010204081020408001020408102001021F
:1000A00004081020000000080002010000030407FB
:1000B00000000000000000008B0411241FBECFEFE1
:1000C000D8E0DEBFCDBF11E0A0E0B1E0ECE8FDE09C
:1000D00002C005900D92A034B107D9F722E0A0E448
:1000E000B1E001C01D92AF30B207E1F710E0CDE5FD
:1000F000D0E004C02197FE010E94BE06CC35D10796
:10010000C9F70E94E8040C94C4060C9400008F9276
:100110009F92AF92BF92FF920F931F93CF93DF9363
:10012000F0900C022BE02F1508F44CC020910E0229
:1001300008E512E0021B110927FD1395000F111F9E
:10014000000F111F20910D02C8E8D0E0C21BD10999
:1001500027FDD395CC0FDD1FCC0FDD1F4E010D2EDB
:10016000000CAA08BB089801012E000C440B550B8B
:10017000281939094A095B09DC010E94790624EB38
:1001800030E040E050E00E944F06820E931EA41E15
:10019000B51E8C169D062CF0E801801691060CF415
:1001A000E4012297CC0FDD1F2FB7F8948F2D90E03C
:1001B000FC01EE0FFF1FE80FF91FE951FE4FD2833C
:1001C000C1832FBFDF91CF911F910F91FF90BF90FF
:1001D000AF909F908F90089590E0FC01EC55FF4FF9
:1001E0002491FC01E057FF4F3491FC01E458FF4F8C
:1001F000E491EE23C9F0222339F0233001F1A8F471
:10020000213019F1223029F1F0E0EE0FFF1FEE58F6
:10021000FF4FA591B4918FB7F894EC91611126C06E
:1002200030953E233C938FBF08952730A9F02830A6
:10023000C9F0243049F7809180008F7D03C0809100
:1002400080008F7780938000DFCF84B58F7784BD67
:10025000DBCF84B58F7DFBCF8091B0008F7780930B
:10026000B000D2CF8091B0008F7DF9CF3E2BDACF96
:10027000CF93DF9390E0FC01E057FF4F2491845827
:100280009F4FFC0184918823D1F090E0880F991F43
:10029000FC01E859FF4FA591B491FC01EE58FF4FC6
:1002A000C591D49161110EC09FB7F8948C91E22F43
:1002B000E0958E238C932881E223E8839FBFDF9112
:1002C000CF9108958FB7F894EC91E22BEC938FBF08
:1002D000F6CF8E50806480937C0080917A00806499
:1002E00080937A0080917A0086FDFCCF809178001F
:1002F0009091790008953FB7F894809146019091CC
:100300004701A0914801B091490126B5A89B05C0BD
:100310002F3F19F00196A11DB11D3FBFBA2FA92F84
:10032000982F8827BC01CD01620F711D811D911D81
:1003300042E0660F771F881F991F4A95D1F70895ED
:10034000AF92BF92CF92DF92EF92FF920F931F93E3
:10035000CF93DF936C017B018B01040F151FEB0121
:100360005E01AE18BF08C017D10759F06991D601D8
:10037000ED91FC910190F081E02DC6010995892B4A
:1003800079F7C501DF91CF911F910F91FF90EF9009
:10039000DF90CF90BF90AF900895FC01538D448DB6
:1003A000252F30E0842F90E0821B930B541710F020
:1003B000CF96089501970895FC01918D828D98172D
:1003C00061F0A28DAE0FBF2FB11D5D968C91928D05
:1003D0009F5F9F73928F90E008958FEF9FEF089536
:1003E000FC01918D828D981731F0828DE80FF11DFF
:1003F000858D90E008958FEF9FEF0895FC01918D1A
:10040000228D892F90E0805C9F4F821B91098F7312
:10041000992708958AE491E00E94FE0121E0892B4A
:1004200009F420E0822F089580E090E0892B29F0E4
:100430000E940A0281110C9400000895FC01A48D11
:10044000A80FB92FB11DA35ABF4F2C91848D90E0F6
:1004500001968F739927848FA689B7892C93A089D9
:10046000B1898C91837080648C93938D848D981363
:1004700006C00288F389E02D80818F7D80830895F6
:10048000EF92FF920F931F93CF93DF93EC0181E0E4
:10049000888F9B8D8C8D98131AC0E889F98980818B
:1004A00085FF15C09FB7F894EE89FF896083E889BE
:1004B000F98980818370806480839FBF81E090E0B0
:1004C000DF91CF911F910F91FF90EF900895F62E3D
:1004D0000B8D10E00F5F1F4F0F731127E02E8C8DD7
:1004E0008E110CC00FB607FCFACFE889F98980811C
:1004F00085FFF5CFCE010E941E02F1CFEB8DEC0FF0
:10050000FD2FF11DE35AFF4FF0829FB7F8940B8F38
:10051000EA89FB8980818062CFCFCF93DF93EC01A2
:10052000888D8823B9F0AA89BB89E889F9898C91DB
:1005300085FD03C0808186FD0DC00FB607FCF7CF97
:100540008C9185FFF2CF808185FFEDCFCE010E9497
:100550001E02E9CFDF91CF910895FC0101900020A8
:10056000E9F73197AF01481B590BBC018AE491E0D0
:100570000C94A0018F929F92AF92BF920F931F9302
:10058000CF93DF93CDB7DEB7A1970FB6F894DEBF58
:100590000FBECDBF19A2423008F44AE08E010F5DB4
:1005A0001F4F842E912CB12CA12CA50194010E94E7
:1005B0008106E62FB901CA01EA30F4F4E05DD80102
:1005C000EE938D01232B242B252B79F790E080E0EF
:1005D000109719F0CD010E94AD02A1960FB6F894C4
:1005E000DEBF0FBECDBFDF91CF911F910F91BF90A6
:1005F000AF909F908F900895E95CE1CFCF92DF920A
:10060000EF92FF92CF93DF936B017C016DE28AE45E
:1006100091E00E944002EC0166277727CB016C191C
:100620007D098E099F094AE00E94BA028C0F9D1F26
:10063000DF91CF91FF90EF90DF90CF900895CF930F
:10064000DF930E94AD02EC0182E191E00E94AD02D5
:100650008C0F9D1FDF91CF9108951F920F920FB6BF
:100660000F9211242F933F938F939F93AF93BF9338
:100670008091420190914301A0914401B0914501C4
:100680003091410123E0230F2D3758F50196A11D2C
:10069000B11D209341018093420190934301A093A7
:1006A0004401B09345018091460190914701A0918A
:1006B0004801B09149010196A11DB11D80934601E9
:1006C00090934701A0934801B0934901BF91AF9126
:1006D0009F918F913F912F910F900FBE0F901F9080
:1006E000189526E8230F0296A11DB11DD2CF1F92A7
:1006F0000F920FB60F9211242F933F934F935F9356
:100700006F937F938F939F93AF93BF93EF93FF93D9
:100710008AE491E00E941E02FF91EF91BF91AF9198
:100720009F918F917F916F915F914F913F912F9109
:100730000F900FBE0F901F9018951F920F920FB63B
:100740000F9211242F938F939F93EF93FF93E09138
:100750005A01F0915B018081E0916001F0916101AB
:1007600082FD1BC09081809163018F5F8F73209108
:100770006401821741F0E0916301F0E0E65BFE4F17
:10078000958F80936301FF91EF919F918F912F91AE
:100790000F900FBE0F901F9018958081F4CF1F927D
:1007A0000F920FB60F9211242F933F934F935F93A5
:1007B0006F937F938F939F93AF93BF93CF93DF9369
:1007C000EF93FF9380914001C0910B02D0E087FF2F
:1007D00024C01092850010928400809140018F5FA8
:1007E0008093400180914001082E000C990B8C17DA
:1007F0009D0724F4809140018C30C4F180918400E5
:1008000090918500049680349C4908F47AC08091C8
:10081000840090918500049676C080914001082E56
:10082000000C990B8C179D07C4F6E09140018E2FA8
:10083000EE0F990BFC01EE0FFF1FE80FF91FE951B6
:10084000FE4F808186FFC9CFE09140018E2FEE0FD1
:10085000990BFC01EE0FFF1FE80FF91FE951FE4F46
:10086000808160E08F730E94EC00B7CF20918400FC
:1008700030918500E09140018E2FEE0F990BFC0125
:10088000EE0FFF1FE80FF91FE951FE4F81819281A2
:10089000820F931F9093890080938800E09140011C
:1008A0008E2FEE0F990BFC01EE0FFF1FE80FF91FC3
:1008B000E951FE4F808186FF11C0E09140018E2FEB
:1008C000EE0F990BFC01EE0FFF1FE80FF91FE95126
:1008D000FE4F808161E08F730E94EC00FF91EF91E9
:1008E000DF91CF91BF91AF919F918F917F916F9148
:1008F0005F914F913F912F910F900FBE0F901F90DE
:10090000189580E49CE990938900809388008FEF8C
:1009100080934001E3CF10924D0110924C0188EE7C
:1009200093E0A0E0B0E080934E0190934F01A0933C
:100930005001B093510184E091E090934B0180937A
:100940004A0185EC90E0909357018093560184EC26
:1009500090E0909359018093580180EC90E090933F
:100960005B0180935A0181EC90E090935D0180934C
:100970005C0182EC90E090935F0180935E0186ECD5
:1009800090E0909361018093600110926301109256
:100990006401109265011092660180910B028C3007
:1009A00098F491E0980F90930B0280930C0290E0E2
:1009B000FC01EE0FFF1FE80FF91FE951FE4F88EB16
:1009C0009BE09283818308958FEF80930C020895BA
:1009D000789484B5826084BD84B5816084BD85B51A
:1009E000826085BD85B5816085BD80916E00816026
:1009F00080936E00109281008091810082608093CC
:100A000081008091810081608093810080918000CD
:100A10008160809380008091B10084608093B100F8
:100A20008091B00081608093B00080917A008460F2
:100A300080937A0080917A00826080937A0080911E
:100A40007A00816080937A0080917A008068809338
:100A50007A001092C10080910C028C3008F051C0D5
:100A600061E089E00E94380180910C02282F30E07B
:100A7000F901EE0FFF1FE20FF31FE951FE4F9081C6
:100A8000907C9960908310920D0210920E022CE0DF
:100A9000622F0E94B206829FB001112430E020E054
:100AA000AB01420F531FFA01EE0FFF1FE40FF51FBA
:100AB000E951FE4F908196FD16C02F5F3F4F2C30BD
:100AC000310571F781110FC01092800082E0809390
:100AD00081001092850010928400B19A80916F007D
:100AE000826080936F00E0910C028E2F90E0FC01F9
:100AF000EE0FFF1FE80FF91FE951FE4F8081806460
:100B00008083E0915A01F0915B0182E08083E09163
:100B10005601F09157011082E0915801F09159016E
:100B20008FEC808310926201E0915E01F0915F0191
:100B300086E08083E0915C01F0915D0180818061BD
:100B40008083E0915C01F0915D0180818860808309
:100B5000E0915C01F0915D01808180688083E0918B
:100B60005C01F0915D0180818F7D808360E08EE08B
:100B70000E94380160E08FE00E9438018AE590E031
:100B80000E94870090E0A92E90E0B92E8EE00E948E
:100B900069018C018FE00E946901EC0185E191E01F
:100BA0000E94AD02B801012E000C880B990B97FF33
:100BB00059C00E94FE028DE191E00E94AD0280E2E8
:100BC00091E00E94AD02BE010D2E000C880B990B26
:100BD00097FF4CC00E94FE028DE191E00E94AD02A1
:100BE000093522E012070CF445C0C017D1070CF0FC
:100BF00041C090E080E00E94870088E291E00E947E
:100C00001F030E947B012B013C018CE2C82EDD24D6
:100C1000D394E12CF12C0E947B016419750986099B
:100C20009709683E734081059105A8F321E0C21A37
:100C3000D108E108F10888EE480E83E0581E611CD7
:100C4000711CC114D104E104F10429F7A114B10409
:100C500009F49CCF0E940A02882309F497CF0E94CE
:100C6000000094CF4AE00E94BA02A5CF4AE00E9459
:100C7000BA02B2CFC93582E0D80754F00C171D076D
:100C80003CF484EB90E00E94870080E391E0B7CFD2
:100C90008AE590E00E94870089E391E0B0CF052EBD
:100CA00097FB1EF400940E94660657FD07D00E9431
:100CB000810607FC03D04EF40C94660650954095CF
:100CC000309521953F4F4F4F5F4F089590958095F8
:100CD000709561957F4F8F4F9F4F08950E94A30697
:100CE000A59F900DB49F900DA49F800D911D112480
:100CF0000895B7FF0C946E060E946E06821B930B3C
:100D00000895A1E21A2EAA1BBB1BFD010DC0AA1F4C
:100D1000BB1FEE1FFF1FA217B307E407F50720F064
:100D2000A21BB30BE40BF50B661F771F881F991FDF
:100D30001A9469F760957095809590959B01AC0128
:100D4000BD01CF010895A29FB001B39FC001A39F31
:100D5000700D811D1124911DB29F700D811D1124F4
:100D6000911D0895991B79E004C0991F961708F00A
:100D7000961B881F7A95C9F780950895EE0FFF1F7F
:100D80000590F491E02D0994F894FFCF0000000045
:100D90004002A001CD018D02FE01DC01F0010D0A2F
:100DA000004C4452204C3A20002C20004C4452204D
:100DB000523A20004C6566742039300052696768E9
:0C0DC00074203930004D6964646C6500DB
:107E0000112484B714BE81FFF0D085E080938100F7
:107E100082E08093C00088E18093C10086E0809377
:107E2000C20080E18093C4008EE0C9D0259A86E02C
:107E300020E33CEF91E0309385002093840096BBD3
:107E4000B09BFECF1D9AA8958150A9F7CC24DD24C4
:107E500088248394B5E0AB2EA1E19A2EF3E0BF2EE7
:107E6000A2D0813461F49FD0082FAFD0023811F036
:107E7000013811F484E001C083E08DD089C08234E0
:107E800011F484E103C0853419F485E0A6D080C0E4
:107E9000853579F488D0E82EFF2485D0082F10E0AE
:107EA000102F00270E291F29000F111F8ED06801E7
:107EB0006FC0863521F484E090D080E0DECF843638
:107EC00009F040C070D06FD0082F6DD080E0C81688
:107ED00080E7D80618F4F601B7BEE895C0E0D1E017
:107EE00062D089930C17E1F7F0E0CF16F0E7DF06D8
:107EF00018F0F601B7BEE89568D007B600FCFDCFD4
:107F0000A601A0E0B1E02C9130E011968C91119780
:107F100090E0982F8827822B932B1296FA010C0160
:107F200087BEE89511244E5F5F4FF1E0A038BF0790
:107F300051F7F601A7BEE89507B600FCFDCF97BE46
:107F4000E89526C08437B1F42ED02DD0F82E2BD052
:107F50003CD0F601EF2C8F010F5F1F4F84911BD097
:107F6000EA94F801C1F70894C11CD11CFA94CF0C13
:107F7000D11C0EC0853739F428D08EE10CD085E9AC
:107F80000AD08FE07ACF813511F488E018D01DD067
:107F900080E101D065CF982F8091C00085FFFCCF94
:107FA0009093C60008958091C00087FFFCCF809118
:107FB000C00084FD01C0A8958091C6000895E0E648
:107FC000F0E098E1908380830895EDDF803219F02E
:107FD00088E0F5DFFFCF84E1DECF1F93182FE3DFCA
:107FE0001150E9F7F2DF1F91089580E0E8DFEE27F6
:047FF000FF270994CA
:027FFE00040479
:00000001FF
